S00D000055415254322E73726563A9
S1130000FDC0000017C1000015C1000013C10000AD
S113001011C100000FC100000DC100000BC10000A0
S113002009C1000007C1000005C1000003C10000B0
S113003001C10000FFC0000017C100003EC1000064
S113004065C100008CC10000B3C10000DAC100002A
S113005001C2000028C200004FC2000076C20000A6
S1130060E9C00000E7C00000E5C00000E3C00000F4
S1130070E1C00000DFC00000DDC00000DBC0000004
S1130080D9C00000D7C00000D5C00000D3C0000014
S1130090D1C00000CFC00000CDC00000CBC0000024
S11300A0C9C00000C7C00000C5C00000C3C0000034
S11300B0C1C00000BFC00000BDC0000009C40000F2
S11300C030C4000057C400007EC40000A5C4000072
S11300D0CCC40000AFC00000ADC00000ABC0000045
S11300E0A9C00000A7C00000A5C00000A3C0000074
S11300F0A1C000009FC000009DC000009BC0000084
S113010099C0000097C0000095C0000093C0000093
S113011091C000008FC000008DC000008BC00000A3
S113012089C0000087C0000085C0000083C00000B3
S113013081C0000033C200005AC2000081C2000026
S1130140A8C20000CFC20000F6C200001DC3000018
S113015044C300006BC3000092C300006BC00000E6
S113016069C0000067C0000065C0000063C00000F3
S113017061C000005FC000005DC000005BC0000003
S113018059C0000057C0000055C0000053C0000013
S113019051C000004FC000004DC000004BC0000023
S11301A049C0000047C0000045C0000043C0000033
S11301B041C000003FC000003DC000003BC0000043
S11301C039C0000037C0000035C0000033C0000053
S11301D031C000002FC000002DC000002BC0000063
S11301E029C0000027C0000025C0000023C0000073
S11301F021C000001FC000001DC0000011241FBE4C
S1130200CFEFCDBFDFE2DEBF10E2A0E0B0E2E6E771
S1130210F4E102C005900D92AE30B107D9F728E29F
S1130220AEE0B0E201C01D92A532B207E1F705D7F6
S11302300C94390AE5CECF93DF931F92CDB7DEB786
S11302408091462090914720E0914220F0914320F4
S1130250BE016F5F7F4F09958981992787FD90952E
S11302600F90DF91CF9108951F920F920FB60F92C6
S113027011242F933F934F935F936F937F938F93A7
S11302809F93AF93BF93EF93FF93E0914020F0913E
S11302904120309709F00995FF91EF91BF91AF91FB
S11302A09F918F917F916F915F914F913F912F918A
S11302B00F900FBE0F901F9018951F920F920FB6BC
S11302C00F9211242F933F934F935F936F937F93D8
S11302D08F939F93AF93BF93EF93FF93E0913E204F
S11302E0F0913F20309709F00995FF91EF91BF916C
S11302F0AF919F918F917F916F915F914F913F91BA
S11303002F910F900FBE0F901F9018951F920F9270
S11303100FB60F9211242F933F934F935F936F93D4
S11303207F938F939F93AF93BF93EF93FF93E0914A
S11303303C20F0913D20309709F00995FF91EF9111
S1130340BF91AF919F918F917F916F915F914F91E9
S11303503F912F910F900FBE0F901F9018951F92F1
S11303600F920FB60F9211242F933F934F935F93E5
S11303706F937F938F939F93AF93BF93EF93FF9369
S1130380E0913A20F0913B20309709F00995FF91D4
S1130390EF91BF91AF919F918F917F916F915F91F9
S11303A04F913F912F910F900FBE0F901F90189572
S11303B01F920F920FB60F9211242F933F934F93D6
S11303C05F936F937F938F939F93AF93BF93EF93B9
S11303D0FF93E0913820F0913920309709F0099586
S11303E0FF91EF91BF91AF919F918F917F916F9109
S11303F05F914F913F912F910F900FBE0F901F90DF
S113040018951F920F920FB60F9211242F933F93BA
S11304104F935F936F937F938F939F93AF93BF9308
S1130420EF93FF93E0913620F0913720309709F055
S11304300995FF91EF91BF91AF919F918F917F911A
S11304406F915F914F913F912F910F900FBE0F903D
S11304501F9018951F920F920FB60F9211242F938D
S11304603F934F935F936F937F938F939F93AF9338
S1130470BF93EF93FF93E0913420F09135203097B0
S113048009F00995FF91EF91BF91AF919F918F91E1
S11304907F916F915F914F913F912F910F900FBE7C
S11304A00F901F9018951F920F920FB60F92112460
S11304B02F933F934F935F936F937F938F939F9368
S11304C0AF93BF93EF93FF93E0913220F0913320E9
S11304D0309709F00995FF91EF91BF91AF919F91EA
S11304E08F917F916F915F914F913F912F910F90D9
S11304F00FBE0F901F9018951F920F920FB60F9278
S113050011242F933F934F935F936F937F938F9314
S11305109F93AF93BF93EF93FF93E0913020F091BB
S11305203120309709F00995FF91EF91BF91AF9178
S11305309F918F917F916F915F914F913F912F91F7
S11305400F900FBE0F901F9018951F920F920FB629
S11305500F9211242F933F934F935F936F937F9345
S11305608F939F93AF93BF93EF93FF93E0912E20CC
S1130570F0912F20309709F00995FF91EF91BF91E9
S1130580AF919F918F917F916F915F914F913F9127
S11305902F910F900FBE0F901F9018951F920F92DE
S11305A00FB60F9211242F933F934F935F936F9342
S11305B07F938F939F93AF93BF93EF93FF93E091B8
S11305C02C20F0912D20309709F00995FF91EF919F
S11305D0BF91AF919F918F917F916F915F914F9157
S11305E03F912F910F900FBE0F901F9018951F925F
S11305F00F920FB60F9211242F933F934F935F9353
S11306006F937F938F939F93AF93BF93EF93FF93D6
S1130610E0912A20F0912B20309709F00995FF9161
S1130620EF91BF91AF919F918F917F916F915F9166
S11306304F913F912F910F900FBE0F901F901895DF
S11306401F920F920FB60F9211242F933F934F9343
S11306505F936F937F938F939F93AF93BF93EF9326
S1130660FF93E0912820F0912920309709F0099513
S1130670FF91EF91BF91AF919F918F917F916F9176
S11306805F914F913F912F910F900FBE0F901F904C
S113069018951F920F920FB60F9211242F933F9328
S11306A04F935F936F937F938F939F93AF93BF9376
S11306B0EF93FF93E0912620F0912720309709F0E3
S11306C00995FF91EF91BF91AF919F918F917F9188
S11306D06F915F914F913F912F910F900FBE0F90AB
S11306E01F9018951F920F920FB60F9211242F93FB
S11306F03F934F935F936F937F938F939F93AF93A6
S1130700BF93EF93FF93E0912420F091252030973D
S113071009F00995FF91EF91BF91AF919F918F914E
S11307207F916F915F914F913F912F910F900FBEE9
S11307300F901F9018951F920F920FB60F921124CD
S11307402F933F934F935F936F937F938F939F93D5
S1130750AF93BF93EF93FF93E0912220F091232076
S1130760309709F00995FF91EF91BF91AF919F9157
S11307708F917F916F915F914F913F912F910F9046
S11307800FBE0F901F9018951F920F920FB60F92E5
S113079011242F933F934F935F936F937F938F9382
S11307A09F93AF93BF93EF93FF93E0912020F09139
S11307B02120309709F00995FF91EF91BF91AF91F6
S11307C09F918F917F916F915F914F913F912F9165
S11307D00F900FBE0F901F9018951F920F920FB697
S11307E00F9211242F933F934F935F936F937F93B3
S11307F08F939F93AF93BF93EF93FF93E0911E204A
S1130800F0911F20309709F00995FF91EF91BF9166
S1130810AF919F918F917F916F915F914F913F9194
S11308202F910F900FBE0F901F9018951F920F924B
S11308300FB60F9211242F933F934F935F936F93AF
S11308407F938F939F93AF93BF93EF93FF93E09125
S11308501C20F0911D20309709F00995FF91EF912C
S1130860BF91AF919F918F917F916F915F914F91C4
S11308703F912F910F900FBE0F901F9018951F92CC
S11308800F920FB60F9211242F933F934F935F93C0
S11308906F937F938F939F93AF93BF93EF93FF9344
S11308A0E0911A20F0911B20309709F00995FF91EF
S11308B0EF91BF91AF919F918F917F916F915F91D4
S11308C04F913F912F910F900FBE0F901F9018954D
S11308D01F920F920FB60F9211242F933F934F93B1
S11308E05F936F937F938F939F93AF93BF93EF9394
S11308F0FF93E0911820F0911920309709F00995A1
S1130900FF91EF91BF91AF919F918F917F916F91E3
S11309105F914F913F912F910F900FBE0F901F90B9
S113092018951F920F920FB60F9211242F933F9395
S11309304F935F936F937F938F939F93AF93BF93E3
S1130940EF93FF93E0911620F0911720309709F070
S11309500995FF91EF91BF91AF919F918F917F91F5
S11309606F915F914F913F912F910F900FBE0F9018
S11309701F9018951F920F920FB60F9211242F9368
S11309803F934F935F936F937F938F939F93AF9313
S1130990BF93EF93FF93E0911420F09115203097CB
S11309A009F00995FF91EF91BF91AF919F918F91BC
S11309B07F916F915F914F913F912F910F900FBE57
S11309C00F901F9018951F920F920FB60F9211243B
S11309D02F933F934F935F936F937F938F939F9343
S11309E0AF93BF93EF93FF93E0911220F091132004
S11309F0309709F00995FF91EF91BF91AF919F91C5
S1130A008F917F916F915F914F913F912F910F90B3
S1130A100FBE0F901F9018951F920F920FB60F9252
S1130A2011242F933F934F935F936F937F938F93EF
S1130A309F93AF93BF93EF93FF93E0911020F091B6
S1130A401120309709F00995FF91EF91BF91AF9173
S1130A509F918F917F916F915F914F913F912F91D2
S1130A600F900FBE0F901F9018951F920F920FB604
S1130A700F9211242F933F934F935F936F937F9320
S1130A808F939F93AF93BF93EF93FF93E0910E20C7
S1130A90F0910F20309709F00995FF91EF91BF91E4
S1130AA0AF919F918F917F916F915F914F913F9102
S1130AB02F910F900FBE0F901F901895FC0181810C
S1130AC085FFFDCF608380E090E00895FC01818183
S1130AD08823ECF7808108954F925F926F927F9202
S1130AE08F929F92AF92BF92CF92DF92EF92FF923A
S1130AF00F931F93CF93DF93EC014A015B0128010D
S1130B003901D901C801689412F8B695A79597954B
S1130B1087951694D1F7B901A801032E36E176958D
S1130B206795579547953A95D1F7302D2C8122FD3D
S1130B3008C0B695A7959795879576956795579527
S1130B40479588159905AA05BB0508F4A2C0841623
S1130B509506A606B70608F49EC08C8182FD04C0E3
S1130B60880C991CAA1CBB1CC301B201A5019401E9
S1130B70CCD22F3F31054105510508F48EC0C12C5C
S1130B80D12C7601CA9419EF05C02C153D054E05EC
S1130B905F0568F0CC0CDD1CEE1CFF1C1D3F14F43B
S1130BA06894C0F81F5F173081F7212F4EC0212FA2
S1130BB011230CF04AC0D501C401880F991FAA1F44
S1130BC0BB1F880F991FAA1FBB1F880F991FAA1F3D
S1130BD0BB1F481A590A6A0A7B0A1E3FECF46DEFE0
S1130BE07FEF611B710917FD739504C0440C551CFC
S1130BF0661C771C6A95D2F7D501C401B695A795F2
S1130C0097958795BC01CD01640D751D861D971DB3
S1130C10A50194017AD234C023E0210FD501C40187
S1130C2004C0880F991FAA1FBB1F2A95D2F79C01E5
S1130C30AD01B695A79597958795BC01CD01640D37
S1130C40751D861D971D61D21BC02D5FD501C40182
S1130C5004C0880F991FAA1FBB1F2A95D2F79C01B5
S1130C60AD01B695A79597958795BC01CD01640D07
S1130C70751D861D971D49D221503109410951091D
S1130C80832F8F701295107F182B1F832E8381E082
S1130C9018C080E016C080E014C0D501C401880FDC
S1130CA0991FAA1FBB1F880F991FAA1FBB1F880F5C
S1130CB0991FAA1FBB1F481A590A6A0A7B0A19EF0F
S1130CC08ECFDF91CF911F910F91FF90EF90DF9026
S1130CD0CF90BF90AF909F908F907F906F905F90D8
S1130CE04F9008950F931F93CF93DF93EC018B01E3
S1130CF0009709F4BEC0803C910521F460E180E0D6
S1130D0076D1B7C0C11584E0D80721F464E080E04F
S1130D106ED1AFC0C038E1E0DE0721F462E080E0CC
S1130D2066D1A7C0C115F1E0DF0721F461E080E0DE
S1130D305ED19FC0C03883E0D80721F461E081E030
S1130D4056D197C0C115E2E0DE0721F462E081E0EC
S1130D504ED18FC0C032F3E0DF0721F464E082E0BB
S1130D6046D187C0C11588E0D80721F461E083E04B
S1130D703ED17FC0C115E9E0DE0721F461E084E0E3
S1130D8036D177C0C115FAE0DF0721F461E085E0D0
S1130D902ED16FC0C03488E0D80721F462E083E02C
S1130DA026D167C0C034E9E0DE0721F462E084E0C4
S1130DB01ED15FC0C039F8E0DF0721F464E083E0AE
S1130DC016D157C0C03989E0D80721F464E084E023
S1130DD00ED14FC0C039EAE0DE0721F464E085E0BB
S1130DE006D147C0C03CF8E0DF0721F468E083E0A7
S1130DF0FED03FC0C03C89E0D80721F468E084E01D
S1130E00F6D037C0C03AE8E0DE0721F460E183E0C1
S1130E10EED02FC0C03AF9E0DF0721F460E184E0AE
S1130E20E6D027C0C03A8AE0D80721F460E185E023
S1130E30DED01FC0C03BE8E0DE0721F460E283E0BF
S1130E40D6D017C0C03BF9E0DF0721F460E284E0AC
S1130E50CED00FC0C03884E0D80721F460E483E02A
S1130E60C6D007C0C03AE4E0DE0719F460E485E0C8
S1130E70BED08D818F738D83F80194818581892BF8
S1130E809681992311F098E001C090E0892B8D831D
S1130E90F801408151816281738100E016E32EE6FE
S1130EA031E0CE0119DE9C8198609C839C81906125
S1130EB09C83DF91CF911F910F910895682F8091AA
S1130EC0462090914720E0914420F09145200995D7
S1130ED099231CF48FEF9FEF089581E090E008952B
S1130EE0EF92FF920F931F93CF93DF937C018B01BB
S1130EF0EA01209741F0F80161918F01C701DEDD1D
S1130F0021972097C1F780E0DF91CF911F910F9136
S1130F10FF90EF900895CF93DF9300D000D0CDB72A
S1130F20DEB78FEF8093700080937100809372001E
S1130F30809373008093740080937500809376008F
S1130F4064E081E490E069D06CE170E082E05BD021
S1130F508A836DE170E082E056D0898389819A8129
S1130F60019621F480E493E289839A8389819A81AA
S1130F708B839C83E0E6F0E082838C8183838FB74C
S1130F80F894E0E5F0E09081926090838FBF8181D6
S1130F9081FFFDCF8FB7F894A0E5B0E016969C9141
S1130FA01697997F16969C931697E0E6F0E090E8E2
S1130FB095839BEB968316969C9116979460169650
S1130FC09C939081916090838FBF61E080E490E076
S1130FD024D08FB7F894E0E5F0E090819E7F908371
S1130FE08FBF2496CDBFDEBFDF91CF9108959FB709
S1130FF0F894E82FF0E0E059FF4F60958081682372
S113100060839FBF08954091CA01E62FF72F809314
S1131010CA0184914093CA0108951BBEFC0128EDC6
S113102024BF608308954ACD0895CF93DF93EB01E5
S11310304DDD8883DF91CF910895CF93DF93CDB7B2
S1131040DEB72997CDBFDEBF87E0E0EAF0E0828318
S113105062DF80EA99E0809346209093472083E101
S113106098E0809344209093452085E198E0809314
S113107042209093432080910A208F8380910B20FB
S1131080888780910C208987809106209091072081
S1131090A0910820B09109208B839C83AD83BE83EB
S11310A060E184E0A4DFBE016D5F7F4F80EA99E0D8
S11310B019DE6BE171E08EE597E049D088E0E0E667
S11310C0F6E0818330911828E8E4F0E288E198E2C0
S11310D0232F21932F5FE817F907D9F73053309363
S11310E0182880ED97E08093192890931A28198284
S11310F01A8280EA99E0EADC898340ED57E068E4EB
S113110070E280EA99E0ECDEF4CFA1E21A2EAA1B89
S1131110BB1BFD010DC0AA1FBB1FEE1FFF1FA217A3
S1131120B307E407F50720F0A21BB30BE40BF50BA0
S1131130661F771F881F991F1A9469F76095709529
S1131140809590959B01AC01BD01CF0108950F934B
S11311501F93CF93DF93EC018B01009731F461155A
S1131160710519F480E090E037C06EE070E081E032
S113117090E037D0FC010097A9F380E88383011540
S1131180110571F00287138781E8838380911B28FE
S113119090911C28892B21F4E0931B28F0931C28A0
S11311A02097C9F0C087D18783818260838380912F
S11311B01D2890911E28892B71F4E0931D28F0932B
S11311C01E2880911F2890912028892B21F4E093D8
S11311D01F28F0932028CF01DF91CF911F910F9109
S11311E008950F931F93CF93DF93869F8001879F6A
S11311F0100D969F100D1124C8010DD0EC0100971D
S113120021F0A80160E070E02DD1CE01DF91CF91F3
S11312101F910F910895CF93DF938230910510F4BD
S113122082E090E0E0912328F091242820E030E04F
S1131230A0E0B0E0309739F1408151814817590757
S1131240B8F04817590771F482819381109729F0F7
S113125012968D939C9313972CC08093232890937C
S1131260242827C02115310531F04217530718F0FF
S1131270A901DB0101C0EF019A01BD01DF01028078
S1131280F381E02DD7CF21153105F9F0281B390B57
S11312902430310580F48A819B816115710521F028
S11312A0FB018283938304C0809323289093242892
S11312B0FE01329644C0FE01E20FF31F8193919325
S11312C022503109288339833AC020912128309152
S11312D02228232B41F420910220309103202093D3
S11312E021283093222820910020309101202115BB
S11312F0310541F42DB73EB74091042050910520AB
S1131300241B350BE0912128F0912228E217F307E2
S1131310A0F42E1B3F0B2817390778F0AC014E5F61
S11313205F4F2417350748F04E0F5F1F4093212865
S1131330509322288193919302C0E0E0F0E0CF0122
S1131340DF91CF910895CF93DF93009709F487C07D
S1131350FC01329712821382C0912328D091242851
S1131360209781F420813181280F391F8091212811
S1131370909122288217930779F5E0932128F0931E
S113138022286DC0DE0120E030E0AE17BF0750F424
S113139012964D915C9113979D014115510509F1E8
S11313A0DA01F3CFA283B38340815181840F951F67
S11313B08A179B0771F48D919C911197840F951F47
S11313C002968083918312968D919C9113978283C8
S11313D093832115310529F4E0932328F0932428DD
S11313E03EC0D9011296ED93FC9313974D915D91F4
S11313F0A40FB51FEA17FB0779F480819181840F4C
S1131400951F0296D9018D939C93119782819381A4
S113141012968D939C931397E0E0F0E08A819B8170
S1131420009719F0FE01EC01F9CFCE010296288154
S11314303981820F931F2091212830912228281767
S1131440390769F4309729F410922328109224283C
S113145002C012821382C0932128D0932228DF91E4
S1131460CF910895DC0101C06D9341505040E0F7E5
S10914700895F894FFCF7B
S111147600002528200000100E0003000000D6
S9030000FC
