S00C0000554152542E73726563DC
S1130000FDC0000016C1000014C1000012C10000B0
S113001010C100000EC100000CC100000AC10000A4
S113002008C1000006C1000004C1000002C10000B4
S113003000C10000FEC00000FCC00000FAC00000C7
S1130040F8C00000F6C00000F4C00000F2C00000D8
S1130050F0C00000EEC00000ECC00000EAC00000E8
S1130060E8C00000E6C00000E4C00000E2C00000F8
S1130070E0C00000DEC00000DCC00000DAC0000008
S1130080D8C00000D6C00000D4C00000D2C0000018
S1130090D0C00000CEC00000CCC00000CAC0000028
S11300A0C8C00000C6C00000C4C00000C2C0000038
S11300B0C0C00000BEC00000BCC00000BAC0000048
S11300C0B8C00000B6C00000B4C00000B2C0000058
S11300D0B0C00000AEC00000ACC00000AAC0000068
S11300E0A8C00000A6C00000A4C00000A2C0000078
S11300F0A0C000009EC000009CC000009AC0000088
S113010098C0000096C0000094C0000092C0000097
S113011090C000008EC000008CC000008AC00000A7
S113012088C0000086C0000084C0000082C00000B7
S113013080C000007EC000007CC000007AC00000C7
S113014078C0000076C0000074C0000072C00000D7
S113015070C000006EC000006CC000006AC00000E7
S113016068C0000066C0000064C0000062C00000F7
S113017060C000005EC000005CC000005AC0000007
S113018058C0000056C0000054C0000052C0000017
S113019050C000004EC000004CC000004AC0000027
S11301A048C0000046C0000044C0000042C0000037
S11301B040C000003EC000003CC000003AC0000047
S11301C038C0000036C0000034C0000032C0000057
S11301D030C000002EC000002CC000002AC0000067
S11301E028C0000026C0000024C0000022C0000077
S11301F020C000001EC000001CC0000011241FBE4F
S1130200CFEFCDBFDFE2DEBF10E2A0E0B0E2E2E17B
S1130210FCE002C005900D92A033B107D9F720E2AB
S1130220A0E3B0E201C01D92A034B207E1F770D29E
S1130230EEC4E6CECF93DF931F92CDB7DEB78091A5
S1130240342090913520E0913020F0913120BE018E
S11302506F5F7F4F09958981992787FD90950F904E
S1130260DF91CF910895FC01818185FFFDCF6083EB
S113027080E090E00895FC0181818823ECF780817F
S113028008954F925F926F927F928F929F92AF9256
S1130290BF92CF92DF92EF92FF920F931F93CF936F
S11302A0DF93EC014A015B0128013901D901C8013E
S11302B0689412F8B695A795979587951694D1F7F3
S11302C0B901A801032E36E17695679557954795B0
S11302D03A95D1F7302D2C8122FD08C0B695A7950B
S11302E097958795769567955795479588159905B8
S11302F0AA05BB0508F4A2C084169506A606B7068F
S113030008F49EC08C8182FD04C0880C991CAA1C30
S1130310BB1CC301B201A50194015AD22F3F310580
S11303204105510508F48EC0C12CD12C7601CA9424
S113033019EF05C02C153D054E055F0568F0CC0C82
S1130340DD1CEE1CFF1C1D3F14F46894C0F81F5FF5
S1130350173081F7212F4EC0212F11230CF04AC0F2
S1130360D501C401880F991FAA1FBB1F880F991FAD
S1130370AA1FBB1F880F991FAA1FBB1F481A590A1F
S11303806A0A7B0A1E3FECF46DEF7FEF611B710973
S113039017FD739504C0440C551C661C771C6A95A4
S11303A0D2F7D501C401B695A79597958795BC0159
S11303B0CD01640D751D861D971DA501940108D2FC
S11303C034C023E0210FD501C40104C0880F991F54
S11303D0AA1FBB1F2A95D2F79C01AD01B695A7951C
S11303E097958795BC01CD01640D751D861D971DDC
S11303F0EFD11BC02D5FD501C40104C0880F991F24
S1130400AA1FBB1F2A95D2F79C01AD01B695A795EB
S113041097958795BC01CD01640D751D861D971DAB
S1130420D7D12150310941095109832F8F70129579
S1130430107F182B1F832E8381E018C080E016C024
S113044080E014C0D501C401880F991FAA1FBB1FE7
S1130450880F991FAA1FBB1F880F991FAA1FBB1FB4
S1130460481A590A6A0A7B0A19EF8ECFDF91CF9195
S11304701F910F91FF90EF90DF90CF90BF90AF90BE
S11304809F908F907F906F905F904F9008950F93FF
S11304901F93CF93DF93EC018B01009709F4BEC047
S11304A0803C910521F460E180E016D1B7C0C1150C
S11304B084E0D80721F464E080E00ED1AFC0C038F6
S11304C0E1E0DE0721F462E080E006D1A7C0C115B7
S11304D0F1E0DF0721F461E080E0FED09FC0C03886
S11304E083E0D80721F461E081E0F6D097C0C1151C
S11304F0E2E0DE0721F462E081E0EED08FC0C0329A
S1130500F3E0DF0721F464E082E0E6D087C0C115A0
S113051088E0D80721F461E083E0DED07FC0C11514
S1130520E9E0DE0721F461E084E0D6D077C0C115AC
S1130530FAE0DF0721F461E085E0CED06FC0C0347B
S113054088E0D80721F462E083E0C6D067C0C034F5
S1130550E9E0DE0721F462E084E0BED05FC0C03988
S1130560F8E0DF0721F464E083E0B6D057C0C03977
S113057089E0D80721F464E084E0AED04FC0C039EC
S1130580EAE0DE0721F464E085E0A6D047C0C03C81
S1130590F8E0DF0721F468E083E09ED03FC0C03C70
S11305A089E0D80721F468E084E096D037C0C03AE7
S11305B0E8E0DE0721F460E183E08ED02FC0C03A8A
S11305C0F9E0DF0721F460E184E086D027C0C03A77
S11305D08AE0D80721F460E185E07ED01FC0C03BEB
S11305E0E8E0DE0721F460E283E076D017C0C03B88
S11305F0F9E0DF0721F460E284E06ED00FC0C03878
S113060084E0D80721F460E483E066D007C0C03AF0
S1130610E4E0DE0719F460E485E05ED08D818F7339
S11306208D83F80194818581892B9681992311F01A
S113063098E001C090E0892B8D83F80140815181BD
S11306406281738100E018E428EE31E0CE0119DE06
S11306509C8198609C839C8190619C83DF91CF9165
S11306601F910F910895682F809134209091352027
S1130670E0913220F0913320099599231CF48FEFF7
S11306809FEF089581E090E008958FEF80937000CC
S11306908093710080937200809373008093740040
S11306A080937500809376008FB7F894E0E5F0E0CE
S11306B09081926090838FBF818181FFFDCF61E043
S11306C080E490E015D08FB7F894E0E5F0E09081F5
S11306D09E7F90838FBF08959FB7F894E82FF0E032
S11306E0E059FF4F60958081682360839FBF089520
S11306F01BBEFC0128ED24BF60830895CF93DF93D4
S1130700EB01B9DD8883DF91CF910895ACCD0895D5
S1130710CF93DF93CDB7DEB72797CDBFDEBFB5DF6D
S113072080EA9AE0809334209093352086E893E021
S113073080933220909333208EE793E0809330208F
S11307409093312080910A208D8380910B208E8399
S113075080910C208F838091062090910720A09196
S11307600820B091092089839A83AB83BC8360E11C
S113077085E0B2DFBE016F5F7F4F80EA9AE087DEDB
S11307806AE171E083E393E045D084E0E0E6F6E0DB
S1130790818306E310E2F8018081918185D082365D
S11307A0910521F48DE090E2BDD0F5CF8637910517
S11307B021F484E190E2B6D0EECF8437910521F4A0
S11307C08CE190E2AFD0E7CF88E290E2ABD0E3CF08
S11307D0A1E21A2EAA1BBB1BFD010DC0AA1FBB1F41
S11307E0EE1FFF1FA217B307E407F50720F0A21BB3
S11307F0B30BE40BF50B661F771F881F991F1A9420
S113080069F760957095809590959B01AC01BD0149
S1130810CF0108950F931F93CF93DF93EC018B01C6
S1130820009731F46115710519F480E090E037C048
S11308306EE070E081E090E0A2D0FC010097A9F3A3
S113084080E883830115110571F00287138781E81D
S113085083838091362090913720892B21F4E09373
S11308603620F09337202097C9F0C087D187838141
S1130870826083838091382090913920892B71F490
S1130880E0933820F093392080913A2090913B20D6
S1130890892B21F4E0933A20F0933B20CF01DF91A0
S11308A0CF911F910F910895CF93DF93EC012B818A
S11308B020FF33C026FF0AC02F7B2B838E819F81AC
S11308C001968E839F838A8190E029C022FF0FC006
S11308D0E881F9818081992787FD9095009719F423
S11308E020622B831AC03196E883F9830EC0EA850F
S11308F0FB85099597FF09C02B81019611F480E1CE
S113090001C080E2822B8B8308C02E813F812F5F40
S11309103F4F2E833F83992702C08FEF9FEFDF91D4
S1130920CF9108950F931F93CF93DF93E0913820D5
S1130930F0913920238121FF1BC0EC0100E010E07D
S113094089916091382070913920DB011896ED91DE
S1130950FC911997882331F00995892B89F30FEFBE
S11309601FEFEECF8AE00995892B11F4C80102C06C
S11309708FEF9FEFDF91CF911F910F9108950F9308
S11309801F93CF93DF93869F8001879F100D969FBF
S1130990100D1124C8010DD0EC01009721F0A8011D
S11309A060E070E02DD1CE01DF91CF911F910F91C6
S11309B00895CF93DF938230910510F482E090E0A4
S11309C0E0913E20F0913F2020E030E0A0E0B0E054
S11309D0309739F14081518148175907B8F04817C9
S11309E0590771F482819381109729F012968D939F
S11309F09C9313972CC080933E2090933F2027C054
S1130A002115310531F04217530718F0A901DB0114
S1130A1001C0EF019A01BD01DF010280F381E02DE5
S1130A20D7CF21153105F9F0281B390B24303105B6
S1130A3080F48A819B816115710521F0FB01828319
S1130A40938304C080933E2090933F20FE0132960E
S1130A5044C0FE01E20FF31F8193919322503109A8
S1130A60288339833AC020913C2030913D20232BA8
S1130A7041F4209102203091032020933C203093B4
S1130A803D2020910020309101202115310541F4B1
S1130A902DB73EB74091042050910520241B350BFF
S1130AA0E0913C20F0913D20E217F307A0F42E1BC7
S1130AB03F0B2817390778F0AC014E5F5F4F2417BE
S1130AC0350748F04E0F5F1F40933C2050933D2064
S1130AD08193919302C0E0E0F0E0CF01DF91CF91E8
S1130AE00895CF93DF93009709F487C0FC013297F0
S1130AF012821382C0913E20D0913F20209781F42E
S1130B0020813181280F391F80913C2090913D2014
S1130B108217930779F5E0933C20F0933D206DC054
S1130B20DE0120E030E0AE17BF0750F412964D917D
S1130B305C9113979D014115510509F1DA01F3CF39
S1130B40A283B38340815181840F951F8A179B0729
S1130B5071F48D919C911197840F951F0296808357
S1130B60918312968D919C9113978283938321157F
S1130B70310529F4E0933E20F0933F203EC0D90193
S1130B801296ED93FC9313974D915D91A40FB51FAD
S1130B90EA17FB0779F480819181840F951F0296EF
S1130BA0D9018D939C9311978281938112968D9391
S1130BB09C931397E0E0F0E08A819B81009719F001
S1130BC0FE01EC01F9CFCE01029628813981820F12
S1130BD0931F20913C2030913D202817390769F458
S1130BE0309729F410923E2010923F2002C01282C6
S1130BF01382C0933C20D0933D20DF91CF91089580
S1130C00DC0101C06D9341505040E0F70895F89421
S1050C10FFCF10
S1130C120000402020008025000003000042696E8D
S1130C2261727900566F6C746167650054656D700A
S1130C3265726174757265004E6F7468696E6700DF
S9030000FC
