S00B00004144432E7372656351
S11300007EC100009CC100009AC1000098C100009C
S113001096C1000094C1000092C1000090C100008C
S11300208EC100008CC100008AC1000088C100009C
S113003086C1000084C1000082C1000080C10000AC
S11300407EC100007CC100007AC1000078C10000BC
S113005076C1000074C1000072C1000070C10000CC
S11300606EC100006CC100006AC1000068C10000DC
S113007066C1000064C1000062C1000060C10000EC
S11300805EC100005CC100005AC1000058C10000FC
S113009056C1000054C1000052C100006CC20000EF
S11300A09CC20000CCC20000FCC2000048C1000099
S11300B046C1000044C1000042C1000040C100002C
S11300C03EC100003CC100003AC1000038C100003C
S11300D036C1000034C1000032C1000030C100004C
S11300E02EC100002CC100002AC1000028C100005C
S11300F026C1000024C1000022C1000020C100006C
S11301001EC100001CC100001AC1000018C100007B
S113011016C1000014C1000012C1000064C1000037
S113012094C10000C4C10000F4C1000008C1000073
S113013006C1000004C1000002C1000000C10000AB
S1130140FEC00000FCC00000FAC00000F8C00000BF
S1130150F6C00000F4C00000F2C00000F0C00000CF
S1130160EEC00000ECC00000EAC00000E8C00000DF
S1130170E6C00000E4C00000E2C00000E0C00000EF
S1130180DEC00000DCC00000DAC00000D8C00000FF
S1130190D6C00000D4C00000D2C00000D0C000000F
S11301A0CEC00000CCC00000CAC00000C8C000001F
S11301B0C6C00000C4C00000C2C00000C0C000002F
S11301C0BEC00000BCC00000BAC00000B8C000003F
S11301D0B6C00000B4C00000B2C00000B0C000004F
S11301E0AEC00000ACC00000AAC00000A8C000005F
S11301F0A6C00000A4C00000A2C000006E616E0092
S1130200696E660000407A10F35A00A0724E180915
S11302100010A5D4E80000E87648170000E40B5469
S1130220020000CA9A3B000000E1F5050000809638
S11302309800000040420F000000A086010000006A
S1130240102700000000E803000000006400000024
S113025000000A00000000000100000000002C76ED
S1130260D888DC674F0823DFC1DFAE59E1B1B79608
S1130270E5E3E453C63AE651997696E8E6C2842665
S1130280EB898C9B62ED407C6FFCEFBC9C9F40F241
S1130290BAA56FA5F490055A2AF75C936B6CF967BD
S11302A06DC11BFCE0E40D47FEF520E6B500D0ED82
S11302B0902E0300943577050080841E08000020EA
S11302C04E0A000000C80C333333330F986E128388
S11302D01141EF8D2114893BE65516CFFEE6DB185C
S11302E0D1844B381BF77C1D901DA4BBE424203221
S11302F084725E228100C9F124ECA1E53D2711241A
S11303001FBECFEFCDBFDFE5DEBF00E00CBF10E2C4
S1130310A0E0B0E2E6EDF0E200E00BBF02C007901F
S11303200D92AA31B107D9F720E2AAE1B0E201C0E7
S11303301D92A633B207E1F778D50C94691060CE0C
S1130340811522E0920761F480911B2091E0980FBF
S113035090931B20811112C062E081E035C508959D
S11303608034924059F480911A2091E0980F909330
S11303701A20811103C062E082E026C50895811528
S113038022E0920759F480911B20815080931B2016
S1130390811111C062E081E023C508958034924048
S11303A051F480911A20815080931A20811103C046
S11303B062E082E015C508951F93CF93DF93EC01AB
S11303C01FB7F894BDDF8881816088831FBF8FB712
S11303D0F894E1E2F0E290819F5F90838FBFDF9118
S11303E0CF911F9108951F920F920FB60F9211246F
S11303F00BB60F922F933F934F935F936F937F931B
S11304008F939F93AF93BF93EF93FF93E0E0F2E05A
S113041044A155A1E0911E20F0911F2061E080E0ED
S113042092E01995FF91EF91BF91AF919F918F91B8
S11304307F916F915F914F913F912F910F900BBEE0
S11304400F900FBE0F901F9018951F920F920FB62A
S11304500F9211240BB60F922F933F934F935F93F8
S11304606F937F938F939F93AF93BF93EF93FF9378
S1130470E8E2F2E044815581E0911E20F0911F20D2
S113048062E080E092E01995FF91EF91BF91AF9106
S11304909F918F917F916F915F914F913F912F9198
S11304A00F900BBE0F900FBE0F901F9018951F92C8
S11304B00F920FB60F9211240BB60F922F933F9306
S11304C04F935F936F937F938F939F93AF93BF9358
S11304D0EF93FF93E0E3F2E044815581E0911E2025
S11304E0F0911F2064E080E092E01995FF91EF9174
S11304F0BF91AF919F918F917F916F915F914F9138
S11305003F912F910F900BBE0F900FBE0F901F9035
S113051018951F920F920FB60F9211240BB60F92DB
S11305202F933F934F935F936F937F938F939F93F7
S1130530AF93BF93EF93FF93E8E3F2E044815581D7
S1130540E0911E20F0911F2068E080E092E0199570
S1130550FF91EF91BF91AF919F918F917F916F9197
S11305605F914F913F912F910F900BBE0F900FBE53
S11305700F901F9018951F920F920FB60F9211248F
S11305800BB60F922F933F934F935F936F937F9389
S11305908F939F93AF93BF93EF93FF93E0E4F2E0C5
S11305A044A155A1E0911C20F0911D2061E080E45C
S11305B092E01995FF91EF91BF91AF919F918F9127
S11305C07F916F915F914F913F912F910F900BBE4F
S11305D00F900FBE0F901F9018951F920F920FB699
S11305E00F9211240BB60F922F933F934F935F9367
S11305F06F937F938F939F93AF93BF93EF93FF93E7
S1130600E8E6F2E044815581E0911C20F0911D2040
S113061062E080E492E01995FF91EF91BF91AF9170
S11306209F918F917F916F915F914F913F912F9106
S11306300F900BBE0F900FBE0F901F9018951F9236
S11306400F920FB60F9211240BB60F922F933F9374
S11306504F935F936F937F938F939F93AF93BF93C6
S1130660EF93FF93E0E7F2E044815581E0911C2091
S1130670F0911D2064E080E492E01995FF91EF91E0
S1130680BF91AF919F918F917F916F915F914F91A6
S11306903F912F910F900BBE0F900FBE0F901F90A4
S11306A018951F920F920FB60F9211240BB60F924A
S11306B02F933F934F935F936F937F938F939F9366
S11306C0AF93BF93EF93FF93E8E7F2E04481558142
S11306D0E0911C20F0911D2068E080E492E01995DF
S11306E0FF91EF91BF91AF919F918F917F916F9106
S11306F05F914F913F912F910F900BBE0F900FBEC2
S11307000F901F901895DF92EF92FF920F931F9313
S1130710CF93DF93EC018B01C11522E0D20771F472
S113072061E270E082E067D3E82EF12C60E270E0D1
S113073082E061D3FE2CEE24E82A10C0803492407B
S113074059F565E270E082E056D3E82EF12C64E2BC
S113075070E082E050D3FE2CEE24E82ADFB6F89451
S1130760CE01EEDD288182E08883EC86FD86F801E7
S113077085819681888F998F82818A8384818C83F5
S113078083818B8381818983822F81709081892BDE
S11307908883CE01F4DDDFBEDF91CF911F910F91ED
S11307A0FF90EF90DF900895FF920F931F93CF93E4
S11307B0DF93EC018B01FFB6F894C2DD8881807C65
S11307C0F8018083888D998D858396838A818283BD
S11307D08C8184838B81838389818183CE01CFDD66
S11307E0FFBEDF91CF911F910F91FF900895CF929B
S11307F0DF92EF92FF920F931F93CF93DF937C01CD
S1130800D62E8A01862F837029F4962F9695969575
S113081082E002C0962F80E090FF8F5FE701A096F0
S113082098E0899FC00DD11D1124CFB6F894C7015B
S113083087DDF8018081888382818A83818189832D
S1130840D0FE02C083818E83C70199DDCFBEDF91C4
S1130850CF911F910F91FF90EF90DF90CF9008956B
S1130860CF92DF92EF92FF920F931F93CF93DF9378
S11308707C01D62EEA01862F837029F4962F969553
S1130880969582E002C0962F80E090FF8F5F8701EB
S1130890005E1F4F98E0899F000D111D1124CFB6F3
S11308A0F894C7014DDDF8018081888382818A83B1
S11308B081818983D0FE02C086818B83C7015FDD7D
S11308C0CFBEDF91CF911F910F91FF90EF90DF90FA
S11308D0CF900895CF93DF931F92CDB7DEB7809169
S11308E02A2090912B20E0912620F0912720BE0110
S11308F06F5F7F4F19958981992787FD90950F9098
S1130900DF91CF910895FC01818185FFFDCF608344
S113091080E090E00895FC0181818823ECF78081D8
S113092008954F925F926F927F928F929F92AF92AF
S1130930BF92CF92DF92EF92FF920F931F93CF93C8
S1130940DF93EC014A015B0128013901D901C80197
S1130950689412F8B695A795979587951694D1F74C
S1130960B901A801032E36E1769567955795479509
S11309703A95D1F7302D2C8122FD08C0B695A79564
S11309809795879576956795579547958815990511
S1130990AA05BB0508F4A2C084169506A606B706E8
S11309A008F49EC08C8182FD04C0880C991CAA1C8A
S11309B0BB1CC301B201A5019401DDD72F3F310552
S11309C04105510508F48EC0C12CD12C7601CA947E
S11309D019EF05C02C153D054E055F0568F0CC0CDC
S11309E0DD1CEE1CFF1C1D3F14F46894C0F81F5F4F
S11309F0173081F7212F4EC0212F11230CF04AC04C
S1130A00D501C401880F991FAA1FBB1F880F991F06
S1130A10AA1FBB1F880F991FAA1FBB1F481A590A78
S1130A206A0A7B0A1E3FECF46DEF7FEF611B7109CC
S1130A3017FD739504C0440C551C661C771C6A95FD
S1130A40D2F7D501C401B695A79597958795BC01B2
S1130A50CD01640D751D861D971DA50194018BD7CD
S1130A6034C023E0210FD501C40104C0880F991FAD
S1130A70AA1FBB1F2A95D2F79C01AD01B695A79575
S1130A8097958795BC01CD01640D751D861D971D35
S1130A9072D71BC02D5FD501C40104C0880F991FF4
S1130AA0AA1FBB1F2A95D2F79C01AD01B695A79545
S1130AB097958795BC01CD01640D751D861D971D05
S1130AC05AD72150310941095109832F8F7012954A
S1130AD0107F182B1F832E8381E018C080E016C07E
S1130AE080E014C0D501C401880F991FAA1FBB1F41
S1130AF0880F991FAA1FBB1F880F991FAA1FBB1F0E
S1130B00481A590A6A0A7B0A19EF8ECFDF91CF91EE
S1130B101F910F91FF90EF90DF90CF90BF90AF9017
S1130B209F908F907F906F905F904F9008950F9358
S1130B301F93CF93DF93EC018B01009709F4E6C078
S1130B40803C910521F460E180E03ED1DFC0C038F3
S1130B5081E0D80721F462E080E036D1D7C0C11526
S1130B60E1E0DE0721F461E080E02ED1CFC0C0389F
S1130B70F3E0DF0721F461E081E026D1C7C0C0398A
S1130B8083E0D80721F461E082E01ED1BFC0C11523
S1130B90E2E0DE0721F462E081E016D1B7C0C034A0
S1130BA0F2E0DF0721F462E082E00ED1AFC0C03290
S1130BB083E0D80721F464E082E006D1A7C0C11520
S1130BC0E8E0DE0721F461E083E0FED09FC0C115B8
S1130BD0F9E0DF0721F461E084E0F6D097C0C115A5
S1130BE08AE0D80721F461E085E0EED08FC0C1151A
S1130BF0EBE0DE0721F461E086E0E6D087C0C03494
S1130C00F8E0DF0721F462E083E0DED07FC0C03487
S1130C1089E0D80721F462E084E0D6D077C0C034FC
S1130C20EAE0DE0721F462E085E0CED06FC0C0398F
S1130C30F8E0DF0721F464E083E0C6D067C0C03980
S1130C4089E0D80721F464E084E0BED05FC0C039F5
S1130C50EAE0DE0721F464E085E0B6D057C0C0398D
S1130C60FBE0DF0721F464E086E0AED04FC0C03C77
S1130C7088E0D80721F468E083E0A6D047C0C03CF0
S1130C80E9E0DE0721F468E084E09ED03FC0C03A8A
S1130C90F8E0DF0721F460E183E096D037C0C03A82
S1130CA089E0D80721F460E184E08ED02FC0C03AF7
S1130CB0EAE0DE0721F460E185E086D027C0C03A8F
S1130CC0FBE0DF0721F460E186E07ED01FC0C03B7B
S1130CD088E0D80721F460E283E076D017C0C03BF7
S1130CE0E9E0DE0721F460E284E06ED00FC0C03892
S1130CF0F4E0DF0721F460E483E066D007C0C03A83
S1130D0084E0D80719F460E485E05ED08D818F73A8
S1130D108D83F80194818581892B9681992311F023
S1130D2098E001C090E0892B8D83F80140815181C6
S1130D306281738100E018E428EE31E0CE01F1DD38
S1130D409C8198609C839C8190619C83DF91CF916E
S1130D501F910F910895682F80912A2090912B2044
S1130D60E0912820F0912920199599231CF48FEF04
S1130D709FEF089581E090E008958FEF80937000D5
S1130D808093710080937200809373008093740049
S1130D9080937500809376008FB7F894E0E5F0E0D7
S1130DA09081926090838FBF818181FFFDCF61E04C
S1130DB080E490E02AD08FB7F894E0E5F0E09081E9
S1130DC09E7F90838FBF08959FB7F894E82FF0E03B
S1130DD0E059FF4F60958081682360839FBF089529
S1130DE09FB7F894E82FF0E0E059FF4F8081682B1B
S1130DF060839FBF08954091CA01E62FF72F809327
S1130E00CA0184914093CA0108951BBEFC0128EDD8
S1130E1024BF60830895CF93DF93EB017CDD888347
S1130E20DF91CF9108956FCD0895CF93DF93CDB720
S1130E30DEB72B97CDBFDEBFA0DFBE016F5F7F4F54
S1130E4080E092E0B1DCAE01485F5F4F61E080E09A
S1130E5092E006DD8A819B819F789B83817E8061FD
S1130E608A831C8284E08D8383E0888789E0898774
S1130E70BE016F5F7F4F80E092E045DCAE01485FCA
S1130E805F4F61E080E092E0B2DC80EA9AE0809318
S1130E902A2090932B2083E197E08093282090933D
S1130EA029208BE097E0809326209093272080913F
S1130EB00A208D8380910B208E8380910C208F8358
S1130EC08091062090910720A0910820B0910920DC
S1130ED089839A83AB83BC8360E185E075DFBE01BF
S1130EE06F5F7F4F80EA9AE022DE6AE674E08BEA65
S1130EF096E051D688E0E0E8F6E0818380E092E075
S1130F005BDA712C812C612C512C412C00E012E015
S1130F10992493940F2EFDE02F2EF0E23F2EF02D16
S1130F20ECE2F0E28081918180D6882309F448C004
S1130F30E72C6894FF24F3F8A82CB62CC52CD42CE9
S1130F408FB7F894F8019081946090838FBFF80173
S1130F50868180FFFCCF96828FB7F894F80164A154
S1130F6075A18FBF882777FD8095982F94D09B011A
S1130F70AC016A2D7B2D8C2D9D2D27D0A62EB72E4E
S1130F80C82ED92EF1E0EF1AF108E114F104C1F6EC
S1130F9020E030E040E05AE30AD120E030E04AEFBC
S1130FA05EE305D19F938F937F936F933F922F922C
S1130FB0ACD60F900F900F900F900F900F90B0CF72
S1130FC081E190E2B3D6ACCF5058BB27AA270ED00C
S1130FD0B4C0A5D030F0AAD020F031F49F3F11F472
S1130FE01EF49AC00EF4E095E7FB90C0E92FB6D04A
S1130FF080F3BA17620773078407950718F071F432
S11310009EF5CEC00EF4E0950B2EBA2FA02D0B0149
S1131010B90190010C01CA01A0011124FF27591B39
S113102099F0593F50F4503E68F11A16F040A22F3F
S1131030232F342F4427585FF3CF469537952795B0
S1131040A795F0405395C9F77EF41F16BA0B620BAF
S1131050730B840BBAF09150A1F0FF0FBB1F661FF6
S1131060771F881FC2F70EC0BA0F621F731F841F39
S113107048F4879577956795B795F7959E3F08F05F
S1131080B3CF9395880F08F09927EE0F979587951E
S11310900895E89409C097FB3EF490958095709567
S11310A061957F4F8F4F9F4F9923A9F0F92F96E9B0
S11310B0BB279395F695879577956795B795F11125
S11310C0F8CFFAF4BB0F11F460FF1BC06F5F7F4FC2
S11310D08F4F9F4F16C0882311F096E911C07723D4
S11310E021F09EE8872F762F05C0662371F096E8DD
S11310F0862F70E060E02AF09A95660F771F881FAC
S1131100DAF7880F9695879597F9089597F99F6769
S113111080E870E060E008959FEF80EC089500247B
S11311200A941616170618060906089500240A9448
S113113012161306140605060895092E0394000CCE
S113114011F4882352F0BB0F40F4BF2B11F460FF5D
S113115004C06F5F7F4F8F4F9F4F089557FD905886
S1131160440F551F59F05F3F71F04795880F97FB67
S1131170991F61F09F3F79F0879508951216130621
S11311801406551FF2CF4695F1DF08C01616170650
S11311901806991FF1CF8695710561050894089585
S11311A0E894BB2766277727CB0197F908950BD0DE
S11311B0C4CFB5DF28F0BADF18F0952309F0A6CF25
S11311C0ABCF1124EECFCADFA0F3959FD1F3950FD7
S11311D050E0551F629FF001729FBB27F00DB11DB7
S11311E0639FAA27F00DB11DAA1F649F6627B00D47
S11311F0A11D661F829F2227B00DA11D621F739F30
S1131200B00DA11D621F839FA00D611D221F749F3D
S11312103327A00D611D231F849F600D211D822F84
S1131220762F6A2F11249F5750408AF0E1F08823CB
S11312304AF0EE0FFF1FBB1F661F771F881F9150D8
S11312405040A9F79E3F510570F060CFAACF5F3F91
S1131250ECF3983EDCF3869577956795B795F7950B
S1131260E7959F5FC1F7FE2B880F911D9695879593
S113127097F908952F923F924F925F926F927F92C7
S11312808F929F92AF92BF92CF92DF92EF92FF9292
S11312900F931F93CF93DF93CDB7DEB76397CDBF83
S11312A0DEBF7C011B016A01FC0116821782838167
S11312B081FF49C3BE016F5F7F4F4B01F7019381EB
S11312C0F10193FD859193FF81911F01882309F416
S11312D036C3853239F493FD859193FF81911F01C3
S11312E0853231F4B70190E0DED456016501E6CFD2
S11312F010E0512C20E02032A0F48B3269F030F45D
S1131300803259F0833269F420612CC08D3239F077
S1131310803339F4216026C02260246023C0286011
S113132021C027FD27C030ED380F3A3078F426FF6E
S113133006C0FAE01F9F300D1124132F13C06AE07A
S1131340569E300D1124532E20620CC08E3221F48F
S113135026FDF5C2206406C08C3611F4206802C054
S1131360883641F4F10193FD859193FF81911F012A
S11313708111C1CF9BEB980F933018F42061805EEC
S113138006C09BE9980F933008F09AC12F7E26FF80
S113139016E02F73722E853621F4F22FF0647F2E1F
S11313A008C0863621F4622F6068762E02C01111BF
S11313B0115077FE07C01C3348F444244394410E73
S11313C027E00BC0183030F4212F06C027E04CE38F
S11313D0442E03C027E017E0412C560174E0A70E09
S11313E0B11CF6016081718182819381042DA40175
S11313F0E4D26C01098100FF02C003FF06C071FC46
S113140007C072FC08C0612C08C03DE2632E05C011
S11314102BE2622E02C090E2692E802F8C7081F143
S1131420662011F084E001C083E0851510F0512C92
S11314300AC0581A73FC07C0B70180E290E033D4A5
S11314405A94D1F7F4CF662021F0B701862D90E0AD
S11314502AD403FD03C000E012E002C00CEF11E047
S1131460F72DF0717F2EF8018491882309F45EC270
S113147071108052B70190E016D40F5F1F4FF3CF65
S113148077FE0FC04C0C04FF04C08A81813309F439
S11314904A94141474F5F8E0F41578F588E0482EAD
S11314A02CC076FC2AC0812F90E08C159D059CF001
S11314B06CEFC6166FEFD60674F0772D7068772E32
S11314C00AC0E2E0F0E0EC0FFD1FE10FF11D8081A6
S11314D0803319F411501111F4CF77FE0EC0442457
S11314E04394410E812F90E0C816D9062CF41C19A0
S11314F004C04424439401C010E077FE07C01C14C8
S11315001D043CF496012F5F3F4F05C025E030E0F9
S113151002C021E030E0662011F02F5F3F4F11231D
S113152031F0412F50E04F5F5F4F240F351F452DA1
S113153050E02417350714F4521A01C0512C872D9A
S1131540897041F4552031F0B70180E290E0ABD3CB
S11315505A94F8CF662021F0B701862D90E0A3D3EA
S113156073FC08C0552031F0B70180E390E09BD3B1
S11315705A94F8CF77FE5DC09C2D8D2DD7FE02C006
S113158090E080E0692E782E40E050E0C601841996
S113159091098C879D87960126193709280D391DD5
S11315A0812F90E0EE27FF27E81BF90BEE87FF87DA
S11315B0FFEF6F167F0661F4B7018EE290E02B8B8C
S11315C03A8B488B598B6FD3598948893A892B892F
S11315D0C614D70454F06C857D85661577052CF404
S11315E0F901E40FF51F818101C080E371E0671AFE
S11315F071084F5F5F4FEE85FF856E167F0664F0BE
S1131600B70190E02B8B3A8B488B598B4CD32B89A9
S11316103A8948895989CCCF6C147D0439F49A816C
S1131620963318F4953311F404FF81E3B70190E085
S113163045C08A81813309F00F7EB70190E033D32E
S1131640111105C074FE16C085E490E015C0B70101
S11316508EE290E028D382E066246394680EF4015D
S1131660E80FF11D8081B70190E01DD3115051F3B3
S1131670862DF2CF85E690E0B70115D3D7FC05C0DF
S1131680C114D10439F404FF05C0D194C194D10824
S11316908DE201C08BE2B70190E005D380E36AE0FC
S11316A0C616D1042CF08F5FFAE0CF1AD108F7CF19
S11316B0B70190E0F8D2B701C601C096F4D236C1A2
S11316C0833631F0833779F0833509F054C020C074
S11316D0560172E0A70EB11CF6018081898301E0F6
S11316E010E0640113C05601F2E0AF0EB11CF60124
S11316F0C080D18026FF03C0612F70E002C06FEF6D
S11317007FEFC6012B8B3CD28C012B892F7714C021
S11317105601F2E0AF0EB11CF601C080D18026FF65
S113172003C0612F70E002C06FEF7FEFC6012B8B07
S11317301CD28C012B892068722E23FD18C0852DA4
S113174090E00817190798F4B70180E290E0ABD253
S11317505A94F5CFF60177FC859177FE81916F015C
S1131760B70190E0A0D251105A940150110901150B
S1131770110581F7DBC0843611F0893649F556012D
S113178027FF09C0F4E0AF0EB11CF601608171813E
S1131790828193810AC0F2E0AF0EB11CF601608130
S11317A07181882777FD8095982F022F0F7697FFF8
S11317B008C090958095709561957F4F8F4F9F4F8E
S11317C000682AE030E0A401DED2C82EC8183DC06B
S11317D0022F853721F40F7E2AE030E01DC0097FF7
S11317E08F3691F018F4883559F0A9C0803719F074
S11317F0883711F0A4C0006104FF09C0046007C069
S113180024FF08C0066006C028E030E005C020E1DF
S113181030E002C020E132E0560107FF09C0F4E0E5
S1131820AF0EB11CF601608171818281938108C081
S1131830F2E0AF0EB11CF6016081718180E090E0AE
S1131840A401A1D2C82EC8180F7706FF0BC0202F01
S11318502E7FC11650F404FF0AC002FD08C0202FD9
S11318602E7E05C0DC2C202F03C0DC2C01C0D12E21
S113187024FF0DC0FE01EC0DF11D8081803311F4B5
S1131880297E09C022FF06C0D394D39404C0822FBA
S1131890867809F0D39423FD12C020FF06C01C2DC6
S11318A0D51418F4150D1D19D52CD51460F4B701F1
S11318B080E290E02B8BF7D1D3942B89F6CFD5140B
S11318C010F45D1801C0512C24FF11C0B70180E34E
S11318D090E02B8BE8D12B8922FF16C021FF03C097
S11318E088E590E002C088E790E0B7010CC0822F41
S11318F0867851F021FD02C080E201C08BE227FD11
S11319008DE2B70190E0CFD1C11630F4B70180E386
S113191090E0C9D11150F8CFCA94F401EC0DF11D37
S11319208081B70190E0BFD1C110F6CF552009F4F2
S1131930DDCCB70180E290E0B6D15A94F7CFF7013D
S11319408681978102C08FEF9FEF6396CDBFDEBF84
S1131950DF91CF911F910F91FF90EF90DF90CF9087
S1131960BF90AF909F908F907F906F905F904F90BB
S11319703F902F900895A1E21A2EAA1BBB1BFD01D4
S11319800DC0AA1FBB1FEE1FFF1FA217B307E4075A
S1131990F50720F0A21BB30BE40BF50B661F771FB2
S11319A0881F991F1A9469F7609570958095909592
S11319B09B01AC01BD01CF010895283008F027E058
S11319C03327DA01990F311D87FD91600096610577
S11319D0710539F432602E5F3D9330E32A95E1F7C7
S11319E008959F3F30F080387105610509F03C5F30
S11319F03C5F3D93913008F08068911DDF93CF9355
S1131A001F930F93FF92EF92192F987F9695E92FCA
S1131A1096959695E90FFF27E25AFD4F99273327AC
S1131A20EE24FF24A701E70105900894079428F405
S1131A30360FE71EF81E491F511D660F771F881FBA
S1131A40991F0694A1F70590079428F4E70EF81E51
S1131A50491F561FC11D770F881F991F661F0694C3
S1131A60A1F70590079428F4F80E491F561FC71FC5
S1131A70D11D880F991F661F771F0694A1F7059043
S1131A80079420F4490F561FC71FD81F990F661FCC
S1131A90771F881F0694A9F784911095177041F059
S1131AA0D695C79557954795F794E7941A95C1F736
S1131AB0E4E0F2E068941590159135916591959163
S1131AC005907FE27395E118F10A430B560BC90B9D
S1131AD0D009C0F7E10CF11E431F561FC91FD01DCA
S1131AE07EF4703311F48A95E6CFE894015030F017
S1131AF0080F0AF40027021708F4202F2395022F59
S1131B007A3328F079E37D932A95E9F710C07D9321
S1131B102A9589F60694979567953795179517949E
S1131B20E118F10A430B560BC90BD00998F0239521
S1131B307E9173957A3308F070E37C932013B8F7A1
S1131B407E9170617D9330F0839571E37D9370E3B2
S1131B502A95E1F71124EF90FF900F911F91CF91F7
S1131B60DF91992787FD90950895FC0105906150B8
S1131B7070400110D8F7809590958E0F9F1F08959F
S1131B80FC016150704001900110D8F78095909548
S1131B908E0F9F1F08950F931F93CF93DF93EC0134
S1131BA08B01009731F46115710519F480E090E020
S1131BB037C06EE070E081E090E043D1FC01009713
S1131BC0A9F380E883830115110571F00287138757
S1131BD081E8838380912C2090912D20892B21F4FE
S1131BE0E0932C20F0932D202097C9F0C087D18753
S1131BF083818260838380912E2090912F20892B72
S1131C0071F4E0932E20F0932F2080913020909156
S1131C103120892B21F4E0933020F0933120CF013F
S1131C20DF91CF911F910F910895CF93DF93EC0132
S1131C302B8120FF33C026FF0AC02F7B2B838E818C
S1131C409F8101968E839F838A8190E029C022FF21
S1131C500FC0E881F9818081992787FD90950097CD
S1131C6019F420622B831AC03196E883F9830EC0DD
S1131C70EA85FB85199597FF09C02B81019611F41C
S1131C8080E101C080E2822B8B8308C02E813F81DA
S1131C902F5F3F4F2E833F83992702C08FEF9FEF23
S1131CA0DF91CF9108950F931F93CF93DF93182F54
S1131CB0092FEB018B8181FD03C08FEF9FEF20C0C3
S1131CC082FF10C04E815F812C813D8142175307F2
S1131CD07CF4E881F9819F012F5F3F4F288339838A
S1131CE0108306C0E885F985812F1995892B29F77A
S1131CF02E813F812F5F3F4F2E833F83812F902F73
S1131D00DF91CF911F910F910895CF93DF93CDB7BA
S1131D10DEB7FE01369661917191AF0180912E205C
S1131D2090912F20A7DADF91CF9108950F931F93FD
S1131D30CF93DF93E0912E20F0912F20238121FF78
S1131D401BC0EC0100E010E0899160912E2070919D
S1131D502F20DB011896ED91FC911997882331F01F
S1131D601995892B89F30FEF1FEFEECF8AE01995B0
S1131D70892B11F4C80102C08FEF9FEFDF91CF913F
S1131D801F910F910895FA01AA27283051F12031AB
S1131D9081F1E8946F936E7F6E5F7F4F8F4F9F4FFB
S1131DA0AF4FB1E03ED0B4E03CD0670F781F891F3D
S1131DB09A1FA11D680F791F8A1F911DA11D6A0F0B
S1131DC0711D811D911DA11D20D009F468943F91BE
S1131DD02AE0269F11243019305D3193DEF6CF01BD
S1131DE00895462F4770405D4193B3E00FD0C9F783
S1131DF0F6CF462F4F70405D4A3318F0495D31FDF0
S1131E004052419302D0A9F7EACFB4E0A695979542
S1131E10879577956795BA95C9F700976105710518
S1131E2008959B01AC010A2E069457954795379562
S1131E302795BA95C9F7620F731F841F951FA01DBC
S1131E4008950F931F93CF93DF93869F8001879FFD
S1131E50100D969F100D1124C8010DD0EC010097B0
S1131E6021F0A80160E070E02DD1CE01DF91CF9187
S1131E701F910F910895CF93DF938230910510F451
S1131E8082E090E0E0913420F091352020E030E0D1
S1131E90A0E0B0E0309739F14081518148175907EB
S1131EA0B8F04817590771F482819381109729F08B
S1131EB012968D939C9313972CC080933420909307
S1131EC0352027C02115310531F04217530718F08A
S1131ED0A901DB0101C0EF019A01BD01DF0102800C
S1131EE0F381E02DD7CF21153105F9F0281B390BEB
S1131EF02430310580F48A819B816115710521F0BC
S1131F00FB018283938304C0809334209093352013
S1131F10FE01329644C0FE01E20FF31F81939193B8
S1131F2022503109288339833AC0209132203091DC
S1131F303320232B41F4209102203091032020935D
S1131F40322030933320209100203091012021153C
S1131F50310541F42DB73EB740910420509105203E
S1131F60241B350BE0913220F0913320E217F30764
S1131F70A0F42E1B3F0B2817390778F0AC014E5FF5
S1131F805F4F2417350748F04E0F5F1F40933220F0
S1131F90509333208193919302C0E0E0F0E0CF01AD
S1131FA0DF91CF910895CF93DF93009709F487C011
S1131FB0FC01329712821382C0913420D0913520D3
S1131FC0209781F420813181280F391F809132209C
S1131FD0909133208217930779F5E0933220F093A0
S1131FE033206DC0DE0120E030E0AE17BF0750F4AF
S1131FF012964D915C9113979D014115510509F17C
S1132000DA01F3CFA283B38340815181840F951FFA
S11320108A179B0771F48D919C911197840F951FDA
S113202002968083918312968D919C91139782835B
S113203093832115310529F4E0933420F09335205E
S11320403EC0D9011296ED93FC9313974D915D9187
S1132050A40FB51FEA17FB0779F480819181840FDF
S1132060951F0296D9018D939C9311978281938138
S113207012968D939C931397E0E0F0E08A819B8104
S1132080009719F0FE01EC01F9CFCE0102962881E8
S11320903981820F931F20913220309133202817E9
S11320A0390769F4309729F41092342010923520BE
S11320B002C012821382C0933220D0933320DF9166
S11320C0CF910895DC0101C06D9341505040E0F779
S10920D00895F894FFCF0F
S11320D60000362020008025000003000025660A43
S10D20E6004E6F7468696E67000015
S9030000FC
