S01100004144435F4F6E444D412E737265635D
S11300000CC1000027C1000025C1000023C100006D
S113001021C100001FC1000098C10000BAC1000046
S1130020DCC10000FEC1000015C1000013C10000C6
S113003011C100000FC100008CC20000B3C2000057
S1130040DAC2000001C3000028C300004FC300004F
S113005076C300009DC30000C4C30000EBC30000CE
S1130060F9C00000F7C00000F5C00000F3C00000B4
S1130070F1C00000EFC00000EDC00000EBC00000C4
S1130080E9C00000E7C00000E5C00000E3C00000D4
S1130090E1C00000DFC00000DDC00000DBC00000E4
S11300A0D9C00000D7C00000D5C00000D3C00000F4
S11300B0D1C00000CFC00000CDC000007EC500004C
S11300C0A5C50000CCC50000F3C500001AC6000099
S11300D041C60000BFC00000BDC00000BBC000009E
S11300E0B9C00000B7C00000B5C00000B3C0000034
S11300F0B1C00000AFC00000ADC00000ABC0000044
S1130100A9C00000A7C00000A5C00000A3C0000053
S1130110A1C000009FC000009DC000000C94D30843
S11301200C9401090C942F090C945D0993C00000F0
S113013091C00000A8C30000CFC30000F6C30000B4
S11301401DC4000044C400006BC4000092C400003D
S1130150B9C40000E0C4000007C500007BC0000073
S113016079C0000077C0000075C0000073C00000B3
S113017071C000006FC000006DC000006BC00000C3
S113018069C0000067C0000065C0000063C00000D3
S113019061C000005FC000005DC000005BC00000E3
S11301A059C0000057C0000055C0000053C00000F3
S11301B051C000004FC000004DC000004BC0000003
S11301C049C0000047C0000045C0000043C0000013
S11301D041C000003FC000003DC000003BC0000023
S11301E039C0000037C0000035C0000033C0000033
S11301F031C000002FC000002DC0000005A84CCD68
S1130200B2D44EB93836A9020C50B9918688083C4C
S1130210A6AAAA2ABE000000803F11241FBECFEF69
S1130220CDBFDFE2DEBF10E2A0E0B0E2E2E8FCE135
S113023002C005900D92A030B107D9F729E2A0E0E1
S1130240B0E201C01D92A73AB207E1F70E94CA0AC0
S11302500C943F0ED5CECF93DF93282F30E0F901D5
S11302607196E295F295F07FFE27E07FFE27A0E0ED
S1130270B1E014969C9114971396AC91A9014C5F2C
S11302805F4F61E070E0EB01042E02C0CC0FDD1F74
S11302900A94E2F7082E02C0660F771F0A94E2F769
S11302A06C2BA623B0E0ED01042E02C0D595C795B2
S11302B00A94E2F7C0FD1BC0082E02C0B595A795AD
S11302C00A94E2F7A0FD15C0692370E0DB0102C0C7
S11302D0B595A7954A95E2F7A0FD0DC0AB0102C004
S11302E0559547958A95E2F7CA01817005C084E067
S11302F003C083E001C082E0918190639183F9019E
S1130300EE0FFF1FEB5CFF4D0190F081E02D309765
S113031009F00995DF91CF91089561E080E00E9492
S1130320A30A809140208F3F09F4FFCF8FB7F89440
S1130330E0E4F0E290819F5F90838FBFE0E0F1E022
S113034080E4808380E8808308951F920F920FB623
S11303500F9211242F933F934F935F936F937F9347
S11303608F939F93AF93BF93EF93FF9380E073DFDB
S1130370FF91EF91BF91AF919F918F917F916F9179
S11303805F914F913F912F910F900FBE0F901F904F
S113039018951F920F920FB60F9211242F933F932B
S11303A04F935F936F937F938F939F93AF93BF9379
S11303B0EF93FF9381E04FDFFF91EF91BF91AF91F6
S11303C09F918F917F916F915F914F913F912F9169
S11303D00F900FBE0F901F9018951F920F920FB69B
S11303E00F9211242F933F934F935F936F937F93B7
S11303F08F939F93AF93BF93EF93FF9382E02BDF91
S1130400FF91EF91BF91AF919F918F917F916F91E8
S11304105F914F913F912F910F900FBE0F901F90BE
S113042018951F920F920FB60F9211242F933F939A
S11304304F935F936F937F938F939F93AF93BF93E8
S1130440EF93FF9383E007DFFF91EF91BF91AF91AB
S11304509F918F917F916F915F914F913F912F91D8
S11304600F900FBE0F901F901895DB01E82FF0E05E
S11304707196E295F295F07FFE27E07FFE272FB775
S1130480F89419968C91199784871A968C911A97D7
S11304908587168617968C911797808718968C9166
S11304A018978187128612968C91129782831396DD
S11304B08C911397838314968D919C9115978483C3
S11304C0958316968C911697868311968C91119725
S11304D081838C918F7780832FBF089581159240FB
S11304E061F48091002091E0980F90930020811195
S11304F004C062E081E00C94A30A0895811592403F
S113050059F480910020815080930020811104C00F
S113051062E081E00C94AF0A08951F93CF93DF93B8
S1130520EC011FB7F894DADF8881816088831FBFEC
S1130530809140208F3F09F4FFCF8FB7F894E0E417
S1130540F0E290819F5F90838FBFDF91CF911F91E5
S113055008951F920F920FB60F9211242F933F9379
S11305604F935F936F937F938F939F93AF93BF93B7
S1130570EF93FF93E0913320F0913420309709F00A
S11305800995FF91EF91BF91AF919F918F917F91C9
S11305906F915F914F913F912F910F900FBE0F90EC
S11305A01F9018951F920F920FB60F9211242F933C
S11305B03F934F935F936F937F938F939F93AF93E7
S11305C0BF93EF93FF93E0913120F0913220309765
S11305D009F00995FF91EF91BF91AF919F918F9190
S11305E07F916F915F914F913F912F910F900FBE2B
S11305F00F901F9018951F920F920FB60F9211240F
S11306002F933F934F935F936F937F938F939F9316
S1130610AF93BF93EF93FF93E0912F20F09130209D
S1130620309709F00995FF91EF91BF91AF919F9198
S11306308F917F916F915F914F913F912F910F9087
S11306400FBE0F901F9018951F920F920FB60F9226
S113065011242F933F934F935F936F937F938F93C3
S11306609F93AF93BF93EF93FF93E0912D20F0916D
S11306702E20309709F00995FF91EF91BF91AF912A
S11306809F918F917F916F915F914F913F912F91A6
S11306900F900FBE0F901F9018951F920F920FB6D8
S11306A00F9211242F933F934F935F936F937F93F4
S11306B08F939F93AF93BF93EF93FF93E0912B207E
S11306C0F0912C20309709F00995FF91EF91BF919B
S11306D0AF919F918F917F916F915F914F913F91D6
S11306E02F910F900FBE0F901F9018951F920F928D
S11306F00FB60F9211242F933F934F935F936F93F1
S11307007F938F939F93AF93BF93EF93FF93E09166
S11307102920F0912A20309709F00995FF91EF9153
S1130720BF91AF919F918F917F916F915F914F9105
S11307303F912F910F900FBE0F901F9018951F920D
S11307400F920FB60F9211242F933F934F935F9301
S11307506F937F938F939F93AF93BF93EF93FF9385
S1130760E0912720F0912820309709F00995FF9116
S1130770EF91BF91AF919F918F917F916F915F9115
S11307804F913F912F910F900FBE0F901F9018958E
S11307901F920F920FB60F9211242F933F934F93F2
S11307A05F936F937F938F939F93AF93BF93EF93D5
S11307B0FF93E0912520F0912620309709F00995C8
S11307C0FF91EF91BF91AF919F918F917F916F9125
S11307D05F914F913F912F910F900FBE0F901F90FB
S11307E018951F920F920FB60F9211242F933F93D7
S11307F04F935F936F937F938F939F93AF93BF9325
S1130800EF93FF93E0912320F0912420309709F097
S11308100995FF91EF91BF91AF919F918F917F9136
S11308206F915F914F913F912F910F900FBE0F9059
S11308301F9018951F920F920FB60F9211242F93A9
S11308403F934F935F936F937F938F939F93AF9354
S1130850BF93EF93FF93E0912120F09122203097F2
S113086009F00995FF91EF91BF91AF919F918F91FD
S11308707F916F915F914F913F912F910F900FBE98
S11308800F901F9018951F920F920FB60F9211247C
S11308902F933F934F935F936F937F938F939F9384
S11308A0AF93BF93EF93FF93E0911F20F09120202B
S11308B0309709F00995FF91EF91BF91AF919F9106
S11308C08F917F916F915F914F913F912F910F90F5
S11308D00FBE0F901F9018951F920F920FB60F9294
S11308E011242F933F934F935F936F937F938F9331
S11308F09F93AF93BF93EF93FF93E0911D20F091EB
S11309001E20309709F00995FF91EF91BF91AF91A7
S11309109F918F917F916F915F914F913F912F9113
S11309200F900FBE0F901F9018951F920F920FB645
S11309300F9211242F933F934F935F936F937F9361
S11309408F939F93AF93BF93EF93FF93E0911B20FB
S1130950F0911C20309709F00995FF91EF91BF9118
S1130960AF919F918F917F916F915F914F913F9143
S11309702F910F900FBE0F901F9018951F920F92FA
S11309800FB60F9211242F933F934F935F936F935E
S11309907F938F939F93AF93BF93EF93FF93E091D4
S11309A01920F0911A20309709F00995FF91EF91E1
S11309B0BF91AF919F918F917F916F915F914F9173
S11309C03F912F910F900FBE0F901F9018951F927B
S11309D00F920FB60F9211242F933F934F935F936F
S11309E06F937F938F939F93AF93BF93EF93FF93F3
S11309F0E0911720F0911820309709F00995FF91A4
S1130A00EF91BF91AF919F918F917F916F915F9182
S1130A104F913F912F910F900FBE0F901F901895FB
S1130A201F920F920FB60F9211242F933F934F935F
S1130A305F936F937F938F939F93AF93BF93EF9342
S1130A40FF93E0911520F0911620309709F0099555
S1130A50FF91EF91BF91AF919F918F917F916F9192
S1130A605F914F913F912F910F900FBE0F901F9068
S1130A7018951F920F920FB60F9211242F933F9344
S1130A804F935F936F937F938F939F93AF93BF9392
S1130A90EF93FF93E0911320F0911420309709F025
S1130AA00995FF91EF91BF91AF919F918F917F91A4
S1130AB06F915F914F913F912F910F900FBE0F90C7
S1130AC01F9018951F920F920FB60F9211242F9317
S1130AD03F934F935F936F937F938F939F93AF93C2
S1130AE0BF93EF93FF93E0911120F0911220309780
S1130AF009F00995FF91EF91BF91AF919F918F916B
S1130B007F916F915F914F913F912F910F900FBE05
S1130B100F901F9018951F920F920FB60F921124E9
S1130B202F933F934F935F936F937F938F939F93F1
S1130B30AF93BF93EF93FF93E0910F20F0911020B8
S1130B40309709F00995FF91EF91BF91AF919F9173
S1130B508F917F916F915F914F913F912F910F9062
S1130B600FBE0F901F9018951F920F920FB60F9201
S1130B7011242F933F934F935F936F937F938F939E
S1130B809F93AF93BF93EF93FF93E0910D20F09168
S1130B900E20309709F00995FF91EF91BF91AF9125
S1130BA09F918F917F916F915F914F913F912F9181
S1130BB00F900FBE0F901F9018951F920F920FB6B3
S1130BC00F9211242F933F934F935F936F937F93CF
S1130BD08F939F93AF93BF93EF93FF93E0910B2079
S1130BE0F0910C20309709F00995FF91EF91BF9196
S1130BF0AF919F918F917F916F915F914F913F91B1
S1130C002F910F900FBE0F901F9018951F920F9267
S1130C100FB60F9211242F933F934F935F936F93CB
S1130C207F938F939F93AF93BF93EF93FF93E09141
S1130C300920F0910A20309709F00995FF91EF916E
S1130C40BF91AF919F918F917F916F915F914F91E0
S1130C503F912F910F900FBE0F901F9018951F92E8
S1130C600F920FB60F9211242F933F934F935F93DC
S1130C706F937F938F939F93AF93BF93EF93FF9360
S1130C80E0910720F0910820309709F00995FF9131
S1130C90EF91BF91AF919F918F917F916F915F91F0
S1130CA04F913F912F910F900FBE0F901F90189569
S1130CB01F920F920FB60F9211242F933F934F93CD
S1130CC05F936F937F938F939F93AF93BF93EF93B0
S1130CD0FF93E0910520F0910620309709F00995E3
S1130CE0FF91EF91BF91AF919F918F917F916F9100
S1130CF05F914F913F912F910F900FBE0F901F90D6
S1130D0018951F920F920FB60F9211242F933F93B1
S1130D104F935F936F937F938F939F93AF93BF93FF
S1130D20EF93FF93E0910320F0910420309709F0B2
S1130D300995FF91EF91BF91AF919F918F917F9111
S1130D406F915F914F913F912F910F900FBE0F9034
S1130D501F9018951F920F920FB60F9211242F9384
S1130D603F934F935F936F937F938F939F93AF932F
S1130D70BF93EF93FF93E0910120F091022030970D
S1130D8009F00995FF91EF91BF91AF919F918F91D8
S1130D907F916F915F914F913F912F910F900FBE73
S1130DA00F901F901895FC01818185FFFDCF608312
S1130DB080E090E00895FC0181818823ECF7808134
S1130DC008954F925F926F927F928F929F92AF920B
S1130DD0BF92CF92DF92EF92FF920F931F93CF9324
S1130DE0DF93EC014A015B0128013901D901C801F3
S1130DF0689412F8B695A795979587951694D1F7A8
S1130E00B901A801032E36E1769567955795479564
S1130E103A95D1F7302D2C8122FD08C0B695A795BF
S1130E20979587957695679557954795881599056C
S1130E30AA05BB0508F4A2C084169506A606B70643
S1130E4008F49EC08C8182FD04C0880C991CAA1CE5
S1130E50BB1CC301B201A5019401EFD62F3F31059C
S1130E604105510508F48EC0C12CD12C7601CA94D9
S1130E7019EF05C02C153D054E055F0568F0CC0C37
S1130E80DD1CEE1CFF1C1D3F14F46894C0F81F5FAA
S1130E90173081F7212F4EC0212F11230CF04AC0A7
S1130EA0D501C401880F991FAA1FBB1F880F991F62
S1130EB0AA1FBB1F880F991FAA1FBB1F481A590AD4
S1130EC06A0A7B0A1E3FECF46DEF7FEF611B710928
S1130ED017FD739504C0440C551C661C771C6A9559
S1130EE0D2F7D501C401B695A79597958795BC010E
S1130EF0CD01640D751D861D971DA50194019DD618
S1130F0034C023E0210FD501C40104C0880F991F08
S1130F10AA1FBB1F2A95D2F79C01AD01B695A795D0
S1130F2097958795BC01CD01640D751D861D971D90
S1130F3084D61BC02D5FD501C40104C0880F991F3E
S1130F40AA1FBB1F2A95D2F79C01AD01B695A795A0
S1130F5097958795BC01CD01640D751D861D971D60
S1130F606CD62150310941095109832F8F70129594
S1130F70107F182B1F832E8381E018C080E016C0D9
S1130F8080E014C0D501C401880F991FAA1FBB1F9C
S1130F90880F991FAA1FBB1F880F991FAA1FBB1F69
S1130FA0481A590A6A0A7B0A19EF8ECFDF91CF914A
S1130FB01F910F91FF90EF90DF90CF90BF90AF9073
S1130FC09F908F907F906F905F904F9008950F93B4
S1130FD01F93CF93DF93EC018B01009709F4BEC0FC
S1130FE0803C910521F460E180E0ADD2B7C0C11529
S1130FF084E0D80721F464E080E0A5D2AFC0C03813
S1131000E1E0DE0721F462E080E09DD2A7C0C115D3
S1131010F1E0DF0721F461E080E095D29FC0C038A1
S113102083E0D80721F461E081E08DD297C0C11537
S1131030E2E0DE0721F462E081E085D28FC0C032B5
S1131040F3E0DF0721F464E082E07DD287C0C115BC
S113105088E0D80721F461E083E075D27FC0C11530
S1131060E9E0DE0721F461E084E06DD277C0C115C8
S1131070FAE0DF0721F461E085E065D26FC0C03497
S113108088E0D80721F462E083E05DD267C0C03411
S1131090E9E0DE0721F462E084E055D25FC0C039A4
S11310A0F8E0DF0721F464E083E04DD257C0C03993
S11310B089E0D80721F464E084E045D24FC0C03908
S11310C0EAE0DE0721F464E085E03DD247C0C03C9D
S11310D0F8E0DF0721F468E083E035D23FC0C03C8C
S11310E089E0D80721F468E084E02DD237C0C03A03
S11310F0E8E0DE0721F460E183E025D22FC0C03AA6
S1131100F9E0DF0721F460E184E01DD227C0C03A92
S11311108AE0D80721F460E185E015D21FC0C03B06
S1131120E8E0DE0721F460E283E00DD217C0C03BA3
S1131130F9E0DF0721F460E284E005D20FC0C03893
S113114084E0D80721F460E483E0FDD107C0C03A0D
S1131150E4E0DE0719F460E485E0F5D18D818F7356
S11311608D83F80194818581892B9681992311F0CF
S113117098E001C090E0892B8D83F8014081518172
S11311806281738100E018E428EE31E0CE0119DEBB
S11311909C8198609C839C8190619C83DF91CF911A
S11311A01F910F9108951F920F920FB60F92112461
S11311B02F933F934F935F936F937F938F939F935B
S11311C0AF93BF93EF93FF93E0E0F2E044A155A106
S11311D0E0913D20F0913E2061E080E092E00995AD
S11311E0FF91EF91BF91AF919F918F917F916F91FB
S11311F05F914F913F912F910F900FBE0F901F90D1
S113120018951F920F920FB60F9211242F933F93AC
S11312104F935F936F937F938F939F93AF93BF93FA
S1131220EF93FF93E8E2F2E044815581E0913D20A1
S1131230F0913E2062E080E092E00995FF91EF9109
S1131240BF91AF919F918F917F916F915F914F91DA
S11312503F912F910F900FBE0F901F9018951F92E2
S11312600F920FB60F9211242F933F934F935F93D6
S11312706F937F938F939F93AF93BF93EF93FF935A
S1131280E0E3F2E044815581E0913D20F0913E207D
S113129064E080E092E00995FF91EF91BF91AF91F6
S11312A09F918F917F916F915F914F913F912F917A
S11312B00F900FBE0F901F9018951F920F920FB6AC
S11312C00F9211242F933F934F935F936F937F93C8
S11312D08F939F93AF93BF93EF93FF93E8E3F2E071
S11312E044815581E0913D20F0913E2068E080E00A
S11312F092E00995FF91EF91BF91AF919F918F91EA
S11313007F916F915F914F913F912F910F900FBEFD
S11313100F901F901895DF92EF92FF920F931F93F7
S1131320CF93DF93EC018B01C11582E0D80759F507
S113133061E270E082E01ED1E82EF12C60E270E000
S113134082E018D1FE2CEE24E82ADFB6F894CE0110
S1131350C5D8288182E08883EC86FD86F8018581E2
S11313609681888F998F82818A8384818C838381FB
S11313708B8381818983822F81709081892B8883DB
S1131380CE01BCD8DFBEDF91CF911F910F91FF90AA
S1131390EF90DF900895FF920F931F93CF93DF9305
S11313A0EC018B01FFB6F89499D88881807CF80110
S11313B08083888D998D858396838A8182838C81AD
S11313C084838B81838389818183CE0197D8FFBEF7
S11313D0DF91CF911F910F91FF900895CF92DF92EB
S11313E0EF92FF920F931F93CF93DF937C01D62E3E
S11313F08A01862F837029F4962F9695969582E01C
S113140002C0962F80E090FF8F5FE701A09698E0DE
S1131410899FC00DD11D1124CFB6F894C7015ED8A1
S1131420F8018081888382818A8381818983D0FEC7
S113143002C083818E83C70161D8CFBEDF91CF9173
S11314401F910F91FF90EF90DF90CF900895CF926E
S1131450DF92EF92FF920F931F93CF93DF937C0160
S1131460D62EEA01862F837029F4962F96959695A9
S113147082E002C0962F80E090FF8F5F8701005EBC
S11314801F4F98E0899F000D111D1124CFB6F894C9
S1131490C70124D8F8018081888382818A8381816D
S11314A08983D0FE02C086818B83C70127D8CFBE33
S11314B0DF91CF911F910F91FF90EF90DF90CF902C
S11314C00895EF92FF920F931F93CF93DF937C01C4
S11314D08B01EA01209741F0F80161918F01C70166
S11314E062DC21972097C1F780E0DF91CF911F91B3
S11314F00F91FF90EF9008958FEF80937000809389
S113150071008093720080937300809374008093C1
S11315107500809376008FB7F894E0E5F0E0908151
S1131520926090838FBF818181FFFDCF61E080E471
S113153090E02AD08FB7F894E0E5F0E090819E7FA8
S113154090838FBF08959FB7F894E82FF0E0E05997
S1131550FF4F60958081682360839FBF08959FB784
S1131560F894E82FF0E0E059FF4F8081682B608306
S11315709FBF08954091CA01E62FF72F8093CA01B7
S113158084914093CA0108951BBEFC0128ED24BF39
S113159060830895CF93DF93CDB7DEB72F97CDBF88
S11315A0DEBF05E410E278010F2EF5EFCF2EF4E252
S11315B0DF2EF02DB8016E197F0980E090E0C9D1CB
S11315C09B01AC01CED023EC35EF48E450E44FD27C
S11315D020E030E048E453E428D1ACD220E030E00D
S11315E04AEF52E444D220E030E04AEF52E4B9D06A
S11315F084D1F80161938F01EC15FD05D9F60F2E06
S1131600F0EBEF2EF4E0FF2EF02DE092A529F092FE
S1131610A62972DFE0E6F6E080E2818380E8A0E0BC
S1131620B6E011968C936894DD24D3F8D1820F2E02
S1131630F3E0CF2EF02DCD821E821F8280E090E158
S1131640AEE0B0E089839A83AB83BC8360E184E03D
S11316507ADF8E010F5F1F4FB80180EA99E0B7DC93
S1131660B80180E092E097DEAE01445F5F4F61E035
S113167080E092E0ECDE8A81897E9B819F78906293
S11316809B838C608A83CD8281E08C87DD86B80160
S113169080E092E040DEAE01445F5F4F61E080E0B5
S11316A092E09CDE80E092E00E948D028BE0F801E3
S11316B011928A95E9F7ED82FE828DE98B8380E1B0
S11316C092E08887998785EF94E28A879B8780E1F7
S11316D08C8384E089830E948D018A81807F856068
S11316E08A83B80180E00E9435026894CC24C4F84F
S11316F0DD24D3940F2EF0E6AF2EF6E0BF2EF02DAE
S11317006894882485F80F2EE12CF6E0FF2EF02D46
S11317106894992497F800E011E080EA99E04BDBA3
S11317208FB7F894F6019081906890838FBFF5018C
S11317308782F701958280E090E00196853DF4E18F
S11317409F07D9F7F7019682F80184818171E1F747
S113175040EB54E065E470E280EA99E0B2DEDDCF6C
S11317605058BB27AA270ED048C139D130F03ED1FA
S113177020F031F49F3F11F41EF42EC10EF4E095D5
S1131780E7FB24C1E92F4AD180F3BA176207730734
S11317908407950718F071F49EF562C10EF4E09584
S11317A00B2EBA2FA02D0B01B90190010C01CA0117
S11317B0A0011124FF27591B99F0593F50F4503EC2
S11317C068F11A16F040A22F232F342F4427585FB4
S11317D0F3CF469537952795A795F0405395C9F7CC
S11317E07EF41F16BA0B620B730B840BBAF0915084
S11317F0A1F0FF0FBB1F661F771F881FC2F70EC023
S1131800BA0F621F731F841F48F4879577956795F5
S1131810B795F7959E3F08F0B3CF9395880F08F0DE
S11318209927EE0F9795879508950CD0E6C0DED0E2
S113183040F0D5D030F021F45F3F19F0C7C051110A
S113184010C1CAC0EBD098F39923C9F35523B1F35F
S1131850951B550BBB27AA2762177307840738F01B
S11318609F5F5F4F220F331F441FAA1FA9F333D07A
S11318700E2E3AF0E0E830D091505040E695001C2E
S1131880CAF729D0FE2F27D0660F771F881FBB1FEA
S1131890261737074807AB07B0E809F0BB0B802DC4
S11318A0BF01FF2793585F4F2AF09E3F510568F010
S11318B08DC0D7C05F3FECF3983EDCF386957795F7
S11318C06795B795F7959F5FC9F7880F911D969512
S11318D0879597F90895E1E0660F771F881FBB1F6E
S11318E0621773078407BA0720F0621B730B840B1B
S11318F0BA0BEE1F88F7E095089598D088F09F57AB
S113190090F0B92F9927B751A0F0D1F0660F771F47
S1131910881F991F1AF0BA95C9F712C0B13081F027
S11319209FD0B1E008959CC0672F782F8827B85FB7
S113193039F0B93FCCF3869577956795B395D9F788
S11319403EF490958095709561957F4F8F4F9F4F92
S11319500895E89409C097FB3EF49095809570959E
S113196061957F4F8F4F9F4F9923A9F0F92F96E9E7
S1131970BB279395F695879577956795B795F1115C
S1131980F8CFFAF4BB0F11F460FF1BC06F5F7F4FF9
S11319908F4F9F4F16C0882311F096E911C077230B
S11319A021F09EE8872F762F05C0662371F096E814
S11319B0862F70E060E02AF09A95660F771F881FE3
S11319C0DAF7880F9695879597F9089597F99F67A1
S11319D080E870E060E008959FEF80EC08950024B3
S11319E00A941616170618060906089500240A9480
S11319F012161306140605060895092E0394000C06
S1131A0011F4882352F0BB0F40F4BF2B11F460FF94
S1131A1004C06F5F7F4F8F4F9F4F089557FD9058BD
S1131A20440F551F59F05F3F71F04795880F97FB9E
S1131A30991F61F09F3F79F0879508951216130658
S1131A401406551FF2CF4695F1DF08C01616170687
S1131A501806991FF1CF86957105610508940895BC
S1131A60E894BB2766277727CB0197F908950BD015
S1131A70C4CFB5DF28F0BADF18F0952309F0A6CF5C
S1131A80ABCF1124EECFCADFA0F3959FD1F3950F0E
S1131A9050E0551F629FF001729FBB27F00DB11DEE
S1131AA0639FAA27F00DB11DAA1F649F6627B00D7E
S1131AB0A11D661F829F2227B00DA11D621F739F67
S1131AC0B00DA11D621F839FA00D611D221F749F75
S1131AD03327A00D611D231F849F600D211D822FBC
S1131AE0762F6A2F11249F5750408AF0E1F0882303
S1131AF04AF0EE0FFF1FBB1F661F771F881F915010
S1131B005040A9F79E3F510570F060CFAACF5F3FC8
S1131B10ECF3983EDCF3869577956795B795F79542
S1131B20E7959F5FC1F7FE2B880F911D96958795CA
S1131B3097F908959F9305D00F9007FCEE5F28C096
S1131B404BCF74DFE8F3E894E0E0BB279F57F0F055
S1131B502AED3FE049EC06C0EE0FBB0F661F771F6E
S1131B60881F28F0B23A62077307840728F0B25A34
S1131B70620B730B840BE3959A9572F7803830F4FB
S1131B809A95BB0F661F771F881FD2F7904813C022
S1131B90EF93E0FF06C0A2EA2AED3FE049EC5FEBD9
S1131BA0F1DD2BDF0F90039401FC9058ECEFF1E092
S1131BB00EC09F3F31F0915020F48795779567953B
S1131BC0B795880F911D9695879597F908959F93DA
S1131BD08F937F936F93FF93EF939B01AC0147DF48
S1131BE0EF91FF9105D02F913F914F915F913FCF9E
S1131BF0DF93CF931F930F93FF92EF92DF927B01BA
S1131C008C01689405C0DA2EEF013DDFFE01E894F3
S1131C10A5912591359145915591AEF3EF01B2DD32
S1131C20FE019701A801DA9479F7DF90EF90FF9015
S1131C300F911F91CF91DF910895A1E21A2EAA1B53
S1131C40BB1BFD010DC0AA1FBB1FEE1FFF1FA21768
S1131C50B307E407F50720F0A21BB30BE40BF50B65
S1131C60661F771F881F991F1A9469F760957095EE
S1131C70809590959B01AC01BD01CF010895F89426
S1051C80FFCF90
S9030000FC
