S01800004144435F4F6E496E74657272757074732E73726563E8
S11300007EC100009DC100009BC1000099C1000099
S113001097C1000095C1000093C1000091C1000088
S11300208FC100008DC100008BC1000089C1000098
S113003087C1000085C100000FC200003AC2000061
S113004065C2000090C20000BBC20000E6C200000E
S113005011C300003CC3000067C3000092C300004A
S11300606FC100006DC100006BC1000069C10000D8
S113007067C1000065C1000063C1000061C10000E8
S11300805FC100005DC100005BC1000059C10000F8
S113009057C1000055C1000053C100000C94D70B98
S11300A00C94090C0C943B0C0C946D0C49C100008D
S11300B047C1000045C1000043C1000051C5000014
S11300C07CC50000A7C50000D2C50000FDC5000026
S11300D028C6000053C600007EC60000A9C6000062
S11300E0D4C600002DC100002BC1000029C10000AE
S11300F027C1000025C1000023C1000021C1000068
S11301001FC100001DC100001BC1000019C1000077
S113011017C1000015C1000013C100000C940F0B9F
S11301200C94410B0C94730B0C94A50B09C10000A7
S113013007C1000053C300007EC30000A9C3000030
S1130140D4C30000FFC300002AC4000055C400004B
S113015080C40000ABC40000D6C40000F1C000009D
S1130160EFC00000EDC00000EBC00000E9C00000DB
S1130170E7C00000E5C00000E3C00000E1C00000EB
S1130180DFC00000DDC00000DBC00000D9C00000FB
S1130190D7C00000D5C00000D3C00000D1C000000B
S11301A0CFC00000CDC00000CBC00000C9C000001B
S11301B099C60000C4C60000EFC600001AC70000BC
S11301C045C7000070C70000BBC00000B9C00000F4
S11301D0B7C00000B5C00000B3C00000B1C000004B
S11301E0AFC00000ADC00000ABC00000A9C000005B
S11301F0A7C00000A5C00000A3C000006E616E008F
S1130200696E660000407A10F35A00A0724E180915
S11302100010A5D4E80000E87648170000E40B5469
S1130220020000CA9A3B000000E1F5050000809638
S11302309800000040420F000000A086010000006A
S1130240102700000000E803000000006400000024
S113025000000A00000000000100000000002C76ED
S1130260D888DC674F0823DFC1DFAE59E1B1B79608
S1130270E5E3E453C63AE651997696E8E6C2842665
S1130280EB898C9B62ED407C6FFCEFBC9C9F40F241
S1130290BAA56FA5F490055A2AF75C936B6CF967BD
S11302A06DC11BFCE0E40D47FEF520E6B500D0ED82
S11302B0902E0300943577050080841E08000020EA
S11302C04E0A000000C80C333333330F986E128388
S11302D01141EF8D2114893BE65516CFFEE6DB185C
S11302E0D1844B381BF77C1D901DA4BBE424203221
S11302F084725E228100C9F124ECA1E53D2711241A
S11303001FBECFEFCDBFDFE5DEBF00E00CBF10E2C4
S1130310A0E0B0E2EAE5FAE200E00BBF02C0079019
S11303200D92AE30B107D9F720E2AEE0B0E201C0E1
S11303301D92A437B207E1F70E94E40D0C942B152B
S11303405FCECF93DF931F92CDB7DEB7809160204D
S113035090916120E0915820F0915920BE016F5F87
S11303607F4F19958981992787FD90950F90DF918B
S1130370CF9108954FB7F894282F392F211582E093
S1130380380729F460935C2070935D2007C0203403
S1130390324021F460935A2070935B204FBF08953C
S11303A0811522E0920769F480910F2091E0980F63
S11303B090930F20811114C062E081E00C94B00D81
S11303C008958034924061F480910E2091E0980F5A
S11303D090930E20811104C062E082E00C94B00D71
S11303E00895811522E0920761F480910F208150D5
S11303F080930F20811113C062E081E00C94BC0D46
S113040008958034924059F480910E208150809355
S11304100E20811104C062E082E00C94BC0D0895AA
S11304201F93CF93DF93EC011FB7F894B9DF888152
S1130430816088831FBF809163208F3F09F4FFCFC1
S11304408FB7F894E3E6F0E290819F5F90838FBFCB
S1130450DF91CF911F9108951F920F920FB60F92C3
S113046011240BB60F922F933F934F935F936F9387
S11304707F938F939F93AF93BF93EF93FF93E091F9
S11304805620F0915720309709F01995FF91EF917C
S1130490BF91AF919F918F917F916F915F914F9198
S11304A03F912F910F900BBE0F900FBE0F901F9096
S11304B018951F920F920FB60F9211240BB60F923C
S11304C02F933F934F935F936F937F938F939F9358
S11304D0AF93BF93EF93FF93E0915420F091552095
S11304E0309709F01995FF91EF91BF91AF919F91CA
S11304F08F917F916F915F914F913F912F910F90C9
S11305000BBE0F900FBE0F901F9018951F920F9265
S11305100FB60F9211240BB60F922F933F934F9364
S11305205F936F937F938F939F93AF93BF93EF9357
S1130530FF93E0915220F0915320309709F01995E0
S1130540FF91EF91BF91AF919F918F917F916F91A7
S11305505F914F913F912F910F900BBE0F900FBE63
S11305600F901F9018951F920F920FB60F9211249F
S11305700BB60F922F933F934F935F936F937F9399
S11305808F939F93AF93BF93EF93FF93E09150208A
S1130590F0915120309709F01995FF91EF91BF9197
S11305A0AF919F918F917F916F915F914F913F9107
S11305B02F910F900BBE0F900FBE0F901F901895A8
S11305C01F920F920FB60F9211240BB60F922F9316
S11305D03F934F935F936F937F938F939F93AF93C7
S11305E0BF93EF93FF93E0914E20F0914F2030970B
S11305F009F01995FF91EF91BF91AF919F918F9160
S11306007F916F915F914F913F912F910F900BBE0E
S11306100F900FBE0F901F9018951F920F920FB658
S11306200F9211240BB60F922F933F934F935F9326
S11306306F937F938F939F93AF93BF93EF93FF93A6
S1130640E0914C20F0914D20309709F01995FF91DD
S1130650EF91BF91AF919F918F917F916F915F9136
S11306604F913F912F910F900BBE0F900FBE0F90A3
S11306701F9018951F920F920FB60F9211240BB66C
S11306800F922F933F934F935F936F937F938F9327
S11306909F93AF93BF93EF93FF93E0914A20F09120
S11306A04B20309709F01995FF91EF91BF91AF91CD
S11306B09F918F917F916F915F914F913F912F9176
S11306C00F900BBE0F900FBE0F901F9018951F92A6
S11306D00F920FB60F9211240BB60F922F933F93E4
S11306E04F935F936F937F938F939F93AF93BF9336
S11306F0EF93FF93E0914820F0914920309709F05F
S11307001995FF91EF91BF91AF919F918F917F9137
S11307106F915F914F913F912F910F900BBE0F906E
S11307200FBE0F901F9018951F920F920FB60F9245
S113073011240BB60F922F933F934F935F936F93B4
S11307407F938F939F93AF93BF93EF93FF93E09126
S11307504620F0914720309709F01995FF91EF91C9
S1130760BF91AF919F918F917F916F915F914F91C5
S11307703F912F910F900BBE0F900FBE0F901F90C3
S113078018951F920F920FB60F9211240BB60F9269
S11307902F933F934F935F936F937F938F939F9385
S11307A0AF93BF93EF93FF93E0914420F0914520E2
S11307B0309709F01995FF91EF91BF91AF919F91F7
S11307C08F917F916F915F914F913F912F910F90F6
S11307D00BBE0F900FBE0F901F9018951F920F9293
S11307E00FB60F9211240BB60F922F933F934F9392
S11307F05F936F937F938F939F93AF93BF93EF9385
S1130800FF93E0914220F0914320309709F019952D
S1130810FF91EF91BF91AF919F918F917F916F91D4
S11308205F914F913F912F910F900BBE0F900FBE90
S11308300F901F9018951F920F920FB60F921124CC
S11308400BB60F922F933F934F935F936F937F93C6
S11308508F939F93AF93BF93EF93FF93E0914020C7
S1130860F0914120309709F01995FF91EF91BF91D4
S1130870AF919F918F917F916F915F914F913F9134
S11308802F910F900BBE0F900FBE0F901F901895D5
S11308901F920F920FB60F9211240BB60F922F9343
S11308A03F934F935F936F937F938F939F93AF93F4
S11308B0BF93EF93FF93E0913E20F0913F20309758
S11308C009F01995FF91EF91BF91AF919F918F918D
S11308D07F916F915F914F913F912F910F900BBE3C
S11308E00F900FBE0F901F9018951F920F920FB686
S11308F00F9211240BB60F922F933F934F935F9354
S11309006F937F938F939F93AF93BF93EF93FF93D3
S1130910E0913C20F0913D20309709F01995FF912A
S1130920EF91BF91AF919F918F917F916F915F9163
S11309304F913F912F910F900BBE0F900FBE0F90D0
S11309401F9018951F920F920FB60F9211240BB699
S11309500F922F933F934F935F936F937F938F9354
S11309609F93AF93BF93EF93FF93E0913A20F0915D
S11309703B20309709F01995FF91EF91BF91AF910A
S11309809F918F917F916F915F914F913F912F91A3
S11309900F900BBE0F900FBE0F901F9018951F92D3
S11309A00F920FB60F9211240BB60F922F933F9311
S11309B04F935F936F937F938F939F93AF93BF9363
S11309C0EF93FF93E0913820F0913920309709F0AC
S11309D01995FF91EF91BF91AF919F918F917F9165
S11309E06F915F914F913F912F910F900BBE0F909C
S11309F00FBE0F901F9018951F920F920FB60F9273
S1130A0011240BB60F922F933F934F935F936F93E1
S1130A107F938F939F93AF93BF93EF93FF93E09153
S1130A203620F0913720309709F01995FF91EF9116
S1130A30BF91AF919F918F917F916F915F914F91F2
S1130A403F912F910F900BBE0F900FBE0F901F90F0
S1130A5018951F920F920FB60F9211240BB60F9296
S1130A602F933F934F935F936F937F938F939F93B2
S1130A70AF93BF93EF93FF93E0913420F09135202F
S1130A80309709F01995FF91EF91BF91AF919F9124
S1130A908F917F916F915F914F913F912F910F9023
S1130AA00BBE0F900FBE0F901F9018951F920F92C0
S1130AB00FB60F9211240BB60F922F933F934F93BF
S1130AC05F936F937F938F939F93AF93BF93EF93B2
S1130AD0FF93E0913220F0913320309709F019957B
S1130AE0FF91EF91BF91AF919F918F917F916F9102
S1130AF05F914F913F912F910F900BBE0F900FBEBE
S1130B000F901F9018951F920F920FB60F921124F9
S1130B100BB60F922F933F934F935F936F937F93F3
S1130B208F939F93AF93BF93EF93FF93E091302004
S1130B30F0913120309709F01995FF91EF91BF9111
S1130B40AF919F918F917F916F915F914F913F9161
S1130B502F910F900BBE0F900FBE0F901F90189502
S1130B601F920F920FB60F9211240BB60F922F9370
S1130B703F934F935F936F937F938F939F93AF9321
S1130B80BF93EF93FF93E0912E20F0912F203097A5
S1130B9009F01995FF91EF91BF91AF919F918F91BA
S1130BA07F916F915F914F913F912F910F900BBE69
S1130BB00F900FBE0F901F9018951F920F920FB6B3
S1130BC00F9211240BB60F922F933F934F935F9381
S1130BD06F937F938F939F93AF93BF93EF93FF9301
S1130BE0E0912C20F0912D20309709F01995FF9178
S1130BF0EF91BF91AF919F918F917F916F915F9191
S1130C004F913F912F910F900BBE0F900FBE0F90FD
S1130C101F9018951F920F920FB60F9211240BB6C6
S1130C200F922F933F934F935F936F937F938F9381
S1130C309F93AF93BF93EF93FF93E0912A20F0919A
S1130C402B20309709F01995FF91EF91BF91AF9147
S1130C509F918F917F916F915F914F913F912F91D0
S1130C600F900BBE0F900FBE0F901F9018951F9200
S1130C700F920FB60F9211240BB60F922F933F933E
S1130C804F935F936F937F938F939F93AF93BF9390
S1130C90EF93FF93E0912820F0912920309709F0F9
S1130CA01995FF91EF91BF91AF919F918F917F9192
S1130CB06F915F914F913F912F910F900BBE0F90C9
S1130CC00FBE0F901F9018951F920F920FB60F92A0
S1130CD011240BB60F922F933F934F935F936F930F
S1130CE07F938F939F93AF93BF93EF93FF93E09181
S1130CF02620F0912720309709F01995FF91EF9164
S1130D00BF91AF919F918F917F916F915F914F911F
S1130D103F912F910F900BBE0F900FBE0F901F901D
S1130D2018951F920F920FB60F9211240BB60F92C3
S1130D302F933F934F935F936F937F938F939F93DF
S1130D40AF93BF93EF93FF93E0912420F09125207C
S1130D50309709F01995FF91EF91BF91AF919F9151
S1130D608F917F916F915F914F913F912F910F9050
S1130D700BBE0F900FBE0F901F9018951F920F92ED
S1130D800FB60F9211240BB60F922F933F934F93EC
S1130D905F936F937F938F939F93AF93BF93EF93DF
S1130DA0FF93E0912220F0912320309709F01995C8
S1130DB0FF91EF91BF91AF919F918F917F916F912F
S1130DC05F914F913F912F910F900BBE0F900FBEEB
S1130DD00F901F9018951F920F920FB60F92112427
S1130DE00BB60F922F933F934F935F936F937F9321
S1130DF08F939F93AF93BF93EF93FF93E091202042
S1130E00F0912120309709F01995FF91EF91BF914E
S1130E10AF919F918F917F916F915F914F913F918E
S1130E202F910F900BBE0F900FBE0F901F9018952F
S1130E301F920F920FB60F9211240BB60F922F939D
S1130E403F934F935F936F937F938F939F93AF934E
S1130E50BF93EF93FF93E0911E20F0911F203097F2
S1130E6009F01995FF91EF91BF91AF919F918F91E7
S1130E707F916F915F914F913F912F910F900BBE96
S1130E800F900FBE0F901F9018951F920F920FB6E0
S1130E900F9211240BB60F922F933F934F935F93AE
S1130EA06F937F938F939F93AF93BF93EF93FF932E
S1130EB0E0911C20F0911D20309709F01995FF91C5
S1130EC0EF91BF91AF919F918F917F916F915F91BE
S1130ED04F913F912F910F900BBE0F900FBE0F902B
S1130EE01F9018951F920F920FB60F9211240BB6F4
S1130EF00F922F933F934F935F936F937F938F93AF
S1130F009F93AF93BF93EF93FF93E0911A20F091D7
S1130F101B20309709F01995FF91EF91BF91AF9184
S1130F209F918F917F916F915F914F913F912F91FD
S1130F300F900BBE0F900FBE0F901F9018951F922D
S1130F400F920FB60F9211240BB60F922F933F936B
S1130F504F935F936F937F938F939F93AF93BF93BD
S1130F60EF93FF93E0911820F0911920309709F046
S1130F701995FF91EF91BF91AF919F918F917F91BF
S1130F806F915F914F913F912F910F900BBE0F90F6
S1130F900FBE0F901F9018951F920F920FB60F92CD
S1130FA011240BB60F922F933F934F935F936F933C
S1130FB07F938F939F93AF93BF93EF93FF93E091AE
S1130FC01620F0911720309709F01995FF91EF91B1
S1130FD0BF91AF919F918F917F916F915F914F914D
S1130FE03F912F910F900BBE0F900FBE0F901F904B
S1130FF018951F920F920FB60F9211240BB60F92F1
S11310002F933F934F935F936F937F938F939F930C
S1131010AF93BF93EF93FF93E0911420F0911520C9
S1131020309709F01995FF91EF91BF91AF919F917E
S11310308F917F916F915F914F913F912F910F907D
S11310400BBE0F900FBE0F901F9018951F920F921A
S11310500FB60F9211240BB60F922F933F934F9319
S11310605F936F937F938F939F93AF93BF93EF930C
S1131070FF93E0911220F0911320309709F0199515
S1131080FF91EF91BF91AF919F918F917F916F915C
S11310905F914F913F912F910F900BBE0F900FBE18
S11310A00F901F9018951F920F920FB60F92112454
S11310B00BB60F922F933F934F935F936F937F934E
S11310C08F939F93AF93BF93EF93FF93E09110207F
S11310D0F0911120309709F01995FF91EF91BF918C
S11310E0AF919F918F917F916F915F914F913F91BC
S11310F02F910F900BBE0F900FBE0F901F9018955D
S1131100CF93CFB7F894282F392F211588E03807CB
S113111039F461E083E024D564E083E021D543C061
S1131120203488E0380739F462E083E019D564E0BC
S113113083E016D538C0211589E0380739F461E019
S113114084E00ED564E084E00BD52DC0203489E022
S1131150380739F462E084E003D564E084E000D524
S113116022C021158AE0380739F461E085E0F8D41B
S113117064E085E0F5D417C020348AE0380739F4F8
S113118062E085E0EDD464E085E0EAD40CC021158A
S11311903B4039F461E086E0E3D464E086E0E0D4E7
S11311A002C0CFBF0EC0809163208F3F09F4FFCFF0
S11311B08FB7F894E3E6F0E290819F5F90838FBF4E
S11311C0CFBFCF910895FC01818185FFFDCF60835E
S11311D080E090E00895FC0181818823ECF7808110
S11311E008954F925F926F927F928F929F92AF92E7
S11311F0BF92CF92DF92EF92FF920F931F93CF9300
S1131200DF93EC014A015B0128013901D901C801CE
S1131210689412F8B695A795979587951694D1F783
S1131220B901A801032E36E1769567955795479540
S11312303A95D1F7302D2C8122FD08C0B695A7959B
S11312409795879576956795579547958815990548
S1131250AA05BB0508F4A6C084169506A606B7061B
S113126008F4A2C08C8182FD04C0880C991CAA1CBD
S1131270BB1CC301B201A50194010E94F9112F3FC7
S113128031054105510508F491C0C12CD12C7601DA
S1131290CA9419EF05C02C153D054E055F0568F08D
S11312A0CC0CDD1CEE1CFF1C1D3F14F46894C0F82C
S11312B01F5F173081F7212F50C0212F11230CF00D
S11312C04CC0D501C401880F991FAA1FBB1F880FEA
S11312D0991FAA1FBB1F880F991FAA1FBB1F481A5B
S11312E0590A6A0A7B0A1E3FF4F46DEF7FEF611B13
S11312F0710917FD739504C0440C551C661C771CBA
S11313006A95D2F7D501C401B695A79597958795A7
S1131310BC01CD01640D751D861D971DA5019401A9
S11313200E94F91136C023E0210FD501C40104C085
S1131330880F991FAA1FBB1F2A95D2F79C01AD01E4
S1131340B695A79597958795BC01CD01640D751D3C
S1131350861D971D0E94F9111CC02D5FD501C40183
S113136004C0880F991FAA1FBB1F2A95D2F79C019E
S1131370AD01B695A79597958795BC01CD01640DF0
S1131380751D861D971D0E94F911215031094109CF
S11313905109832F8F701295107F182B1F832E8372
S11313A081E018C080E016C080E014C0D501C401FB
S11313B0880F991FAA1FBB1F880F991FAA1FBB1F45
S11313C0880F991FAA1FBB1F481A590A6A0A7B0A69
S11313D019EF8BCFDF91CF911F910F91FF90EF9079
S11313E0DF90CF90BF90AF909F908F907F906F9041
S11313F05F904F9008950F931F93CF93DF93EC0169
S11314008B01009709F4E6C0803C910521F460E16A
S113141080E0A6D3DFC0C03881E0D80721F462E0C1
S113142080E09ED3D7C0C115E1E0DE0721F461E07E
S113143080E096D3CFC0C038F3E0DF0721F461E049
S113144081E08ED3C7C0C03983E0D80721F461E0BE
S113145082E086D3BFC0C115E2E0DE0721F462E07A
S113146081E07ED3B7C0C034F2E0DF0721F462E04C
S113147082E076D3AFC0C03283E0D80721F464E0C1
S113148082E06ED3A7C0C115E8E0DE0721F461E075
S113149083E066D39FC0C115F9E0DF0721F461E062
S11314A084E05ED397C0C1158AE0D80721F461E0D7
S11314B085E056D38FC0C115EBE0DE0721F461E06F
S11314C086E04ED387C0C034F8E0DF0721F462E041
S11314D083E046D37FC0C03489E0D80721F462E0BA
S11314E084E03ED377C0C034EAE0DE0721F462E052
S11314F085E036D36FC0C039F8E0DF0721F464E03B
S113150083E02ED367C0C03989E0D80721F464E0B2
S113151084E026D35FC0C039EAE0DE0721F464E04A
S113152085E01ED357C0C039FBE0DF0721F464E037
S113153086E016D34FC0C03C88E0D80721F468E0A9
S113154083E00ED347C0C03CE9E0DE0721F468E045
S113155084E006D33FC0C03AF8E0DF0721F460E13D
S113156083E0FED237C0C03A89E0D80721F460E1B5
S113157084E0F6D22FC0C03AEAE0DE0721F460E14D
S113158085E0EED227C0C03AFBE0DF0721F460E13A
S113159086E0E6D21FC0C03B88E0D80721F460E2B1
S11315A083E0DED217C0C03BE9E0DE0721F460E24D
S11315B084E0D6D20FC0C038F4E0DF0721F460E441
S11315C083E0CED207C0C03A84E0D80719F460E4BF
S11315D085E0C6D28D818F738D83F80194818581D6
S11315E0892B9681992311F098E001C090E0892B12
S11315F08D83F801408151816281738100E814E890
S11316002EE130E0CE01EDDD9C8198609C839C81CD
S113161090619C83DF91CF911F910F9108951F9248
S11316200F920FB60F9211240BB60F922F933F9384
S11316304F935F936F937F938F939F93AF93BF93D6
S1131640EF93FF93E0E0F2E044A155A1E0915C2028
S1131650F0915D2061E080E092E01995FF91EF91B7
S1131660BF91AF919F918F917F916F915F914F91B6
S11316703F912F910F900BBE0F900FBE0F901F90B4
S113168018951F920F920FB60F9211240BB60F925A
S11316902F933F934F935F936F937F938F939F9376
S11316A0AF93BF93EF93FF93E8E2F2E04481558157
S11316B0E0915C20F0915D2062E080E092E0199579
S11316C0FF91EF91BF91AF919F918F917F916F9116
S11316D05F914F913F912F910F900BBE0F900FBED2
S11316E00F901F9018951F920F920FB60F9211240E
S11316F00BB60F922F933F934F935F936F937F9308
S11317008F939F93AF93BF93EF93FF93E0E3F2E044
S113171044815581E0915C20F0915D2064E080E09B
S113172092E01995FF91EF91BF91AF919F918F91A5
S11317307F916F915F914F913F912F910F900BBECD
S11317400F900FBE0F901F9018951F920F920FB617
S11317500F9211240BB60F922F933F934F935F93E5
S11317606F937F938F939F93AF93BF93EF93FF9365
S1131770E8E3F2E044815581E0915C20F0915D2042
S113178068E080E092E01995FF91EF91BF91AF91ED
S11317909F918F917F916F915F914F913F912F9185
S11317A00F900BBE0F900FBE0F901F9018951F92B5
S11317B00F920FB60F9211240BB60F922F933F93F3
S11317C04F935F936F937F938F939F93AF93BF9345
S11317D0EF93FF93E0E4F2E044A155A1E0915A2095
S11317E0F0915B2061E080E492E01995FF91EF9124
S11317F0BF91AF919F918F917F916F915F914F9125
S11318003F912F910F900BBE0F900FBE0F901F9022
S113181018951F920F920FB60F9211240BB60F92C8
S11318202F933F934F935F936F937F938F939F93E4
S1131830AF93BF93EF93FF93E8E6F2E044815581C1
S1131840E0915A20F0915B2062E080E492E01995E7
S1131850FF91EF91BF91AF919F918F917F916F9184
S11318605F914F913F912F910F900BBE0F900FBE40
S11318700F901F9018951F920F920FB60F9211247C
S11318800BB60F922F933F934F935F936F937F9376
S11318908F939F93AF93BF93EF93FF93E0E7F2E0AF
S11318A044815581E0915A20F0915B2064E080E40A
S11318B092E01995FF91EF91BF91AF919F918F9114
S11318C07F916F915F914F913F912F910F900BBE3C
S11318D00F900FBE0F901F9018951F920F920FB686
S11318E00F9211240BB60F922F933F934F935F9354
S11318F06F937F938F939F93AF93BF93EF93FF93D4
S1131900E8E7F2E044815581E0915A20F0915B20B0
S113191068E080E492E01995FF91EF91BF91AF9157
S11319209F918F917F916F915F914F913F912F91F3
S11319300F900BBE0F900FBE0F901F901895DF9263
S1131940EF92FF920F931F93CF93DF93EC018B01E0
S1131950C11522E0D20771F461E270E082E017D190
S1131960E82EF12C60E270E082E011D1FE2CEE242E
S1131970E82A10C08034924069F565E270E082E0A4
S113198006D1E82EF12C64E270E082E000D1FE2C56
S1131990EE24E82ADFB6F894CE010E94D001288113
S11319A082E08883EC86FD86F80185819681888FA4
S11319B0998F82818A8384818C8383818B838181C3
S11319C08983822F81709081892B8883CE010E9424
S11319D0F101DFBEDF91CF911F910F91FF90EF9046
S11319E0DF900895FF920F931F93CF93DF93EC0141
S11319F08B01FFB6F8940E94D0018881807CF801A5
S1131A008083888D998D858396838A8182838C8156
S1131A1084838B81838389818183CE010E94F10138
S1131A20FFBEDF91CF911F910F91FF900895CF9248
S1131A30DF92EF92FF920F931F93CF93DF937C017A
S1131A40D62E8A01862F837029F4962F9695969523
S1131A5082E002C0962F80E090FF8F5FE701A0969E
S1131A6098E0899FC00DD11D1124CFB6F894C70109
S1131A700E94D001F8018081888382818A838181D8
S1131A808983D0FE02C083818E83C7010E94F10145
S1131A90CFBEDF91CF911F910F91FF90EF90DF9018
S1131AA0CF900895CF92DF92EF92FF920F931F93FE
S1131AB0CF93DF937C01D62EEA01862F837029F41D
S1131AC0962F9695969582E002C0962F80E090FF1F
S1131AD08F5F8701005E1F4F98E0899F000D111DE5
S1131AE01124CFB6F894C7010E94D001F801808177
S1131AF0888382818A8381818983D0FE02C0868122
S1131B008B83C7010E94F101CFBEDF91CF911F915A
S1131B100F91FF90EF90DF90CF900895682F809100
S1131B20602090916120E0915E20F0915F201995F2
S1131B3099231CF48FEF9FEF089581E090E00895BE
S1131B408FEF809370008093710080937200809374
S1131B5073008093740080937500809376000895D9
S1131B609FB7F894E82FF0E0E059FF4F609580812B
S1131B70682360839FBF08959FB7F894E82FF0E02F
S1131B80E059FF4F8081682B60839FBF0895409187
S1131B90CA01E62FF72F8093CA0184914093CA01AA
S1131BA008954093682050936920642F80EA9AE056
S1131BB00ACB089508CB0895CF93DF93EB010BDB99
S1131BC08883DF91CF910895CF93DF93CDB7DEB7AC
S1131BD02B97CDBFDEBFB4DF62E080E0C1DF80ECD5
S1131BE08093800180E098E08BDAE0E0F8E0818186
S1131BF0887F81838AE090E086A397A38081807F99
S1131C0083608083BE016F5F7F4F80E092E0EADEF5
S1131C10AE01485F5F4F61E080E092E043DF8A817C
S1131C209B819F789B83817E84608A8385E08C83FB
S1131C3082E08D8361ED7DE080E092E00E94BA0154
S1131C40BE016F5F7F4F80E092E079DE8A858C7FF2
S1131C5081608A8783E0888789E08987AE01485F4D
S1131C605F4F61E080E092E0E2DE87E0E0EAF0E0EE
S1131C708283789480EA9AE0809360209093612034
S1131C808AED9DE080935E2090935F208CED9DE033
S1131C90809358209093592080910A208D838091BD
S1131CA00B208E8380910C208F838091062090914D
S1131CB00720A0910820B091092089839A83AB83DF
S1131CC0BC8360E185E04CDFBE016F5F7F4F80EA3B
S1131CD09AE091DB61EA71E08EE89DE09AD488E0B5
S1131CE0E0E8F6E0818380E092E00E941002FFCFFA
S1131CF02F923F924F925F926F927F928F929F9218
S1131D00AF92BF92CF92DF92EF92FF920F931F9305
S1131D10CF93DF93CDB7DEB76397CDBFDEBF7C0132
S1131D201B016A01FC0116821782838181FF49C36A
S1131D30BE016F5F7F4F4B01F7019381F10193FD6A
S1131D40859193FF81911F01882309F436C385325D
S1131D5039F493FD859193FF81911F01853231F40C
S1131D60B70190E0A0D456016501E6CF10E0512CF4
S1131D7020E02032A0F48B3269F030F4803259F044
S1131D80833269F420612CC08D3239F0803339F408
S1131D90216026C02260246023C0286021C027FD62
S1131DA027C030ED380F3A3078F426FF06C0FAE049
S1131DB01F9F300D1124132F13C06AE0569E300D5F
S1131DC01124532E20620CC08E3221F426FDF5C25C
S1131DD0206406C08C3611F4206802C0883641F4B1
S1131DE0F10193FD859193FF81911F018111C1CF71
S1131DF09BEB980F933018F42061805E06C09BE93A
S1131E00980F933008F09AC12F7E26FF16E02F73A7
S1131E10722E853621F4F22FF0647F2E08C08636A8
S1131E2021F4622F6068762E02C01111115077FEE2
S1131E3007C01C3348F444244394410E27E00BC0EC
S1131E40183030F4212F06C027E04CE3442E03C0A1
S1131E5027E017E0412C560174E0A70EB11CF601EF
S1131E606081718182819381042DA401E4D26C018B
S1131E70098100FF02C003FF06C071FC07C072FCA9
S1131E8008C0612C08C03DE2632E05C02BE2622E1F
S1131E9002C090E2692E802F8C7081F1662011F0CF
S1131EA084E001C083E0851510F0512C0AC0581A53
S1131EB073FC07C0B70180E290E0F5D35A94D1F7E0
S1131EC0F4CF662021F0B701862D90E0ECD303FD1A
S1131ED003C000E012E002C00CEF11E0F72DF07136
S1131EE07F2EF8018491882309F45EC27110805218
S1131EF0B70190E0D8D30F5F1F4FF3CF77FE0FC029
S1131F004C0C04FF04C08A81813309F44A941414EC
S1131F1074F5F8E0F41578F588E0482E2CC076FCCA
S1131F202AC0812F90E08C159D059CF06CEFC6169D
S1131F306FEFD60674F0772D7068772E0AC0E2E052
S1131F40F0E0EC0FFD1FE10FF11D8081803319F4E7
S1131F5011501111F4CF77FE0EC044244394410E66
S1131F60812F90E0C816D9062CF41C1904C044240F
S1131F70439401C010E077FE07C01C141D043CF418
S1131F8096012F5F3F4F05C025E030E002C021E0FD
S1131F9030E0662011F02F5F3F4F112331F0412FC5
S1131FA050E04F5F5F4F240F351F452D50E024173D
S1131FB0350714F4521A01C0512C872D897041F44D
S1131FC0552031F0B70180E290E06DD35A94F8CFF8
S1131FD0662021F0B701862D90E065D373FC08C01C
S1131FE0552031F0B70180E390E05DD35A94F8CFE7
S1131FF077FE5DC09C2D8D2DD7FE02C090E080E061
S1132000692E782E40E050E0C601841991098C872E
S11320109D87960126193709280D391D812F90E0D7
S1132020EE27FF27E81BF90BEE87FF87FFEF6F16FC
S11320307F0661F4B7018EE290E02B8B3A8B488BDC
S1132040598B31D3598948893A892B89C614D704C5
S113205054F06C857D85661577052CF4F901E40F41
S1132060F51F818101C080E371E0671A71084F5F39
S11320705F4FEE85FF856E167F0664F0B70190E032
S11320802B8B3A8B488B598B0ED32B893A894889F1
S11320905989CCCF6C147D0439F49A81963318F4A1
S11320A0953311F404FF81E3B70190E045C08A81C0
S11320B0813309F00F7EB70190E0F5D2111105C00C
S11320C074FE16C085E490E015C0B7018EE290E07E
S11320D0EAD282E066246394680EF401E80FF11DED
S11320E08081B70190E0DFD2115051F3862DF2CFF9
S11320F085E690E0B701D7D2D7FC05C0C114D1045E
S113210039F404FF05C0D194C194D1088DE201C013
S11321108BE2B70190E0C7D280E36AE0C616D1042F
S11321202CF08F5FFAE0CF1AD108F7CFB70190E017
S1132130BAD2B701C601C096B6D236C1833631F0E1
S1132140833779F0833509F054C020C0560172E01A
S1132150A70EB11CF6018081898301E010E06401BF
S113216013C05601F2E0AF0EB11CF601C080D1805D
S113217026FF03C0612F70E002C06FEF7FEFC6013E
S11321802B8B3CD28C012B892F7714C05601F2E0A3
S1132190AF0EB11CF601C080D18026FF03C0612FB1
S11321A070E002C06FEF7FEFC6012B8B1CD28C0155
S11321B02B892068722E23FD18C0852D90E0081706
S11321C0190798F4B70180E290E06DD25A94F5CFE4
S11321D0F60177FC859177FE81916F01B70190E05C
S11321E062D251105A94015011090115110581F759
S11321F0DBC0843611F0893649F5560127FF09C042
S1132200F4E0AF0EB11CF60160817181828193818B
S11322100AC0F2E0AF0EB11CF6016081718188271B
S113222077FD8095982F022F0F7697FF08C0909521
S11322308095709561957F4F8F4F9F4F00682AE07E
S113224030E0A40162D2C82EC8183DC0022F8537E1
S113225021F40F7E2AE030E01DC0097F8F3691F013
S113226018F4883559F0A9C0803719F0883711F06F
S1132270A4C0006104FF09C0046007C024FF08C0B3
S1132280066006C028E030E005C020E130E002C06E
S113229020E132E0560107FF09C0F4E0AF0EB11CA3
S11322A0F601608171818281938108C0F2E0AF0EF2
S11322B0B11CF6016081718180E090E0A40125D217
S11322C0C82EC8180F7706FF0BC0202F2E7FC1160B
S11322D050F404FF0AC002FD08C0202F2E7E05C062
S11322E0DC2C202F03C0DC2C01C0D12E24FF0DC018
S11322F0FE01EC0DF11D8081803311F4297E09C0AB
S113230022FF06C0D394D39404C0822F867809F0A8
S1132310D39423FD12C020FF06C01C2DD51418F43D
S1132320150D1D19D52CD51460F4B70180E290E089
S11323302B8BB9D1D3942B89F6CFD51410F45D1817
S113234001C0512C24FF11C0B70180E390E02B8B16
S1132350AAD12B8922FF16C021FF03C088E590E093
S113236002C088E790E0B7010CC0822F867851F054
S113237021FD02C080E201C08BE227FD8DE2B7019E
S113238090E091D1C11630F4B70180E390E08BD195
S11323901150F8CFCA94F401EC0DF11D8081B701FE
S11323A090E081D1C110F6CF552009F4DDCCB701FE
S11323B080E290E078D15A94F7CFF7018681978133
S11323C002C08FEF9FEF6396CDBFDEBFDF91CF9149
S11323D01F910F91FF90EF90DF90CF90BF90AF903F
S11323E09F908F907F906F905F904F903F902F9031
S11323F00895A1E21A2EAA1BBB1BFD010DC0AA1F42
S1132400BB1FEE1FFF1FA217B307E407F50720F059
S1132410A21BB30BE40BF50B661F771F881F991FD4
S11324201A9469F760957095809590959B01AC011D
S1132430BD01CF010895283008F027E03327DA01E1
S1132440990F311D87FD916000966105710539F47E
S113245032602E5F3D9330E32A95E1F708959F3F64
S113246030F080387105610509F03C5F3C5F3D93B5
S1132470913008F08068911DDF93CF931F930F93E1
S1132480FF92EF92192F987F9695E92F969596953E
S1132490E90FFF27E25AFD4F99273327EE24FF2443
S11324A0A701E70105900894079428F4360FE71E66
S11324B0F81E491F511D660F771F881F991F069428
S11324C0A1F70590079428F4E70EF81E491F561F3C
S11324D0C11D770F881F991F661F0694A1F70590E9
S11324E0079428F4F80E491F561FC71FD11D880FE3
S11324F0991F661F771F0694A1F70590079420F48F
S1132500490F561FC71FD81F990F661F771F881FB3
S11325100694A9F784911095177041F0D695C79544
S113252057954795F794E7941A95C1F7E4E0F2E0DC
S113253068941590159135916591959105907FE278
S11325407395E118F10A430B560BC90BD009C0F778
S1132550E10CF11E431F561FC91FD01D7EF47033BA
S113256011F48A95E6CFE894015030F0080F0AF48C
S11325700027021708F4202F2395022F7A3328F01E
S113258079E37D932A95E9F710C07D932A9589F61E
S1132590069497956795379517951794E118F10A5E
S11325A0430B560BC90BD00998F023957E91739574
S11325B07A3308F070E37C932013B8F77E9170614E
S11325C07D9330F0839571E37D9370E32A95E1F771
S11325D01124EF90FF900F911F91CF91DF919927D4
S11325E087FD90950895FC0105906150704001109D
S11325F0D8F7809590958E0F9F1F0895FC01615028
S1132600704001900110D8F7809590958E0F9F1F10
S113261008950F931F93CF93DF93EC018B010097E1
S113262031F46115710519F480E090E037C06EE073
S113263070E081E090E0C7D0FC010097A9F380E846
S113264083830115110571F00287138781E8838361
S113265080916A2090916B20892B21F4E0936A2069
S1132660F0936B202097C9F0C087D1878381826063
S1132670838380916C2090916D20892B71F4E09379
S11326806C20F0936D2080916E2090916F20892BA7
S113269021F4E0936E20F0936F20CF01DF91CF916E
S11326A01F910F9108950F931F93CF93DF93182FCA
S11326B0092FEB018B8181FD03C08FEF9FEF20C0B9
S11326C082FF10C04E815F812C813D8142175307E8
S11326D07CF4E881F9819F012F5F3F4F2883398380
S11326E0108306C0E885F985812F1995892B29F770
S11326F02E813F812F5F3F4F2E833F83812F902F69
S1132700DF91CF911F910F910895FA01AA272830E4
S113271051F1203181F1E8946F936E7F6E5F7F4FAA
S11327208F4F9F4FAF4FB1E03ED0B4E03CD0670F26
S1132730781F891F9A1FA11D680F791F8A1F911D79
S1132740A11D6A0F711D811D911DA11D20D009F4C9
S113275068943F912AE0269F11243019305D31930B
S1132760DEF6CF010895462F4770405D4193B3E0F4
S11327700FD0C9F7F6CF462F4F70405D4A3318F09B
S1132780495D31FD4052419302D0A9F7EACFB4E04C
S1132790A6959795879577956795BA95C9F7009704
S11327A06105710508959B01AC010A2E06945795A5
S11327B0479537952795BA95C9F7620F731F841FFC
S11327C0951FA01D08950F931F93CF93DF93869FAA
S11327D08001879F100D969F100D1124C8010DD004
S11327E0EC01009721F0A80160E070E02DD1CE014A
S11327F0DF91CF911F910F910895CF93DF93823092
S1132800910510F482E090E0E0917220F091732041
S113281020E030E0A0E0B0E0309739F14081518110
S113282048175907B8F04817590771F48281938102
S1132830109729F012968D939C9313972CC0809334
S113284072209093732027C02115310531F042176F
S1132850530718F0A901DB0101C0EF019A01BD0182
S1132860DF010280F381E02DD7CF21153105F9F086
S1132870281B390B2430310580F48A819B81611532
S1132880710521F0FB018283938304C0809372203D
S113289090937320FE01329644C0FE01E20FF31FB1
S11328A08193919322503109288339833AC020912E
S11328B0702030917120232B41F42091022030911B
S11328C003202093702030937120209100203091B8
S11328D001202115310541F42DB73EB74091042064
S11328E050910520241B350BE0917020F09171204C
S11328F0E217F307A0F42E1B3F0B2817390778F0D3
S1132900AC014E5F5F4F2417350748F04E0F5F1F31
S113291040937020509371208193919302C0E0E022
S1132920F0E0CF01DF91CF910895CF93DF9300972B
S113293009F487C0FC01329712821382C09172207D
S1132940D0917320209781F420813181280F391F81
S113295080917020909171208217930779F5E0930C
S11329607020F09371206DC0DE0120E030E0AE17DE
S1132970BF0750F412964D915C9113979D01411538
S1132980510509F1DA01F3CFA283B3834081518168
S1132990840F951F8A179B0771F48D919C91119751
S11329A0840F951F02968083918312968D919C913A
S11329B01397828393832115310529F4E0937220C0
S11329C0F09373203EC0D9011296ED93FC931397B4
S11329D04D915D91A40FB51FEA17FB0779F480812F
S11329E09181840F951F0296D9018D939C93119721
S11329F08281938112968D939C931397E0E0F0E08B
S1132A008A819B81009719F0FE01EC01F9CFCE0178
S1132A10029628813981820F931F20917020309172
S1132A2071202817390769F4309729F4109272201D
S1132A301092732002C012821382C0937020D0932C
S1132A407120DF91CF910895DC0101C06D93415055
S10D2A505040E0F70895F894FFCF1A
S1112A5A00007420200080250000030000000E
S9030000FC
